:020000040000FA
:1000000001288B018316FF239000003081008312AA
:10001000850107309900831610309F00003085005D
:1000200016309500831281309F00B201A901013082
:10003000B3008516B520B5200510AD20AA01031028
:100040008514AD200515AD200511AD200830A100A7
:100050002F20A10B2828AA0AAA0B38281C28AA0D91
:1000600003108514AD20851D2A148510AD200800CD
:100070002A08A10005100514A10B3A28A00153205D
:10008000A000B3004030A907B000EF202908B0005D
:10009000EF2033083F392904B3000530A6005E2065
:1000A000A60B4F281C280830A1000301A401A40AB4
:1000B0002A182407AA0CA10B57280800A030753075
:1000C000AD001430A3008E20A30B632883203230B0
:1000D00084000230A200FF30AB0000089920000825
:1000E0007720840AA20B6D282B0877200800AC002B
:1000F0000830A300AC0D03187F28832080288E20B1
:10010000A30B7A288E2005142D08A500A50B8628A0
:1001100005102D08A500A50B8B28080005102D083B
:10012000A500A50B912805142D08A500A50B962860
:100130000800AB060301AB1B7A3A2B1B3D3AAB1A06
:10014000863A2B1A433AAB19B93A2B19C43AAB1871
:10015000623A2B18313AAB0008000F30A700A60016
:10016000A60BB028A70BAF2808004830B000EF203E
:100170004530B000EF204C30B000EF204C30B000E4
:10018000EF204F30B000EF200D30B000EF200A30EC
:10019000B000EF200800B10E0F303105DE20B000B6
:1001A000EF20B10E0F303105DE20B000EF200D3012
:1001B000B000EF200A30B000EF2008008207303492
:1001C00031343234333434343534363437343834EB
:1001D00039344134423443344434453446340930AC
:1001E000AF0003100318F528F82885160121FB2815
:1001F00085120121FB28B00CAF0BF22885160121D6
:1002000008001F30AE00AE0B0329000008001430B8
:10021000A3008E20A30B092983200800AC0008301E
:10022000A300AC0D03181629832017298E20A30BD9
:1002300011298E20832008004130B300FF30A10037
:10024000A10B2029FF30A100A10B2429FF30A10020
:10025000A10B2829FF30A100A10B2C29FF30A10000
:10026000A10B30295E205E205E205E205E204030A3
:10027000B3071E291C298530AD004130B30005307D
:10028000A100072132087720330877208D307720AE
:10029000A10B3F294030B3070530A10007213208E8
:1002A000772033087720CA307720A10B4E294030C1
:1002B000B3070530A10007213208772033087720E3
:1002C000F7307720A10B5B294030B3070530A10040
:1002D00007213208772033087720B0307720A10B30
:1002E00068294030B3073F298530AD000530A100B3
:1002F000072100300E2141300E218D300E21A10B3F
:1003000078290530A100072100300E2181300E210F
:10031000CA300E21A10B83290530A100072100302E
:100320000E21C1300E21F7300E21A10B8E29053090
:10033000A100072100300E2101300E21B0300E2126
:10034000A10B99290800FF30A100A10BA529FF30BE
:10035000A100A10BA929FF30A100A10BAD29FF30FD
:10036000A100A10BB129FF30A100A10BB529853057
:10037000AD000530A1008E208E208E208E208E2094
:100380008E208E208E208E208E208E208E208E20FD
:100390008E208E208E208E208E208E208E208320F8
:1003A0008320832083208320832083208320832035
:1003B0008E20832083208E2083208320832083200F
:1003C00083208E208E2083208E20832083208320F4
:1003D0008E208E2083208E208E208320A10BBB298F
:1003E0000530A1008E208E208E208E208E208E2023
:1003F0008E208E208E208E208E208E208E208E208D
:100400008E208E208E208E208E208E208320832092
:1004100083208320832083208320832083208E20B9
:1004200083208E20832083208320832083208320A9
:100430008E208E2083208E208E20832083208E206D
:1004400083208E2083208E208320A10BF22905306B
:10045000A1008E208E208E208E208E208E208E2039
:100460008E208E208E208E208E208E208E208E201C
:100470008E208E208E208E208E208320832083202D
:100480008320832083208320832083208E20832049
:100490008E208E20832083208320832083208E2023
:1004A0008E2083208E208E208E208E2083208E20F2
:1004B0008E208E208E208320A10B292A0530A100BA
:1004C0008E208E208E208E208E208E208E208E20BC
:1004D0008E208E208E208E208E208E208E208E20AC
:1004E0008E208E208E208E208320832083208320C8
:1004F000832083208320832083208E2083208320D9
:100500008320832083208320832083208E208E20BD
:1005100083208E2083208E208E20832083208320A2
:0E05200083208E208320A10B602A0800A329CF
:0207FE002434A1
:02400E00C43FAD
:00000001FF
