:020000040000FA
:1000000001288B018316003081008312850107309F
:100010009900831610309F0004308500123095003F
:10002000831281309F000330A1000516AD20AD2062
:100030000512AD20AD20A10B1528B920A001851215
:10004000AC0103100514851485100830A1002E2082
:10005000A10B2728AC0AAC0B39281E28AC0D0310C5
:100060000514FF30A900A90B3328051D2C14051019
:1000700008002C08A10085128516A10B3B282C082E
:10008000AE002E083F392B04AE000330A9005020EB
:10009000A90B47282C084030AB072C08A1001E28CC
:1000A000A0017530A7001430A3008120A30B5528B0
:1000B00075202D3084000230A200FF30A50000081A
:1000C0008D2000086920840AA20B5F28250869207A
:1000D0000800A6000830A300A60D0318712875209B
:1000E00072288120A30B6C288120A00A851627087E
:1000F000A800A80B792885122708A800A80B7E283D
:100100000800A00A85122708A800A80B85288516D4
:100110002708A800A80B8A280800A5060301A51B2C
:100120007A3A251B3D3AA51A863A251A433AA5196B
:10013000B93A2519C43AA518623A2518313AA500EA
:1001400008000830A1000301A401A40A2C18240708
:10015000AC0CA10BA528AC000800FF30AA00A90038
:10016000A90BB028AA0BAF2808004130AE005020E0
:10017000B5287530A7000530A1008120812081209D
:100180008120812081208120812081208120812067
:100190008120812081208120812081208120812057
:1001A000812075207520752075207520752075209B
:1001B000752075208120752075208120752075207F
:1001C0007520752075208120812075208120752063
:1001D0007520752081208120752081208120752047
:1001E000A10BBD280530A100812081208120812024
:1001F00081208120812081208120812081208120F7
:1002000081208120812081208120812081208120E6
:100210007520752075207520752075207520752036
:10022000752081207520812075207520752075200E
:1002300075207520812081207520812081207520E6
:100240007520812075208120752081207520A10BCB
:10025000F4280530A1008120812081208120812087
:100260008120812081208120812081208120812086
:100270008120812081208120812081208120752082
:1002800075207520752075207520752075207520C6
:100290008120752081208120752075207520752092
:1002A000752081208120752081208120812081205E
:1002B000752081208120812081207520A10B2B2990
:1002C0000530A10081208120812081208120812092
:1002D0008120812081208120812081208120812016
:1002E000812081208120812081208120752075201E
:1002F000752075207520752075207520752081204A
:100300007520752075207520752075207520752045
:1003100081208120752081207520812081207520F9
:1003200075207520752081207520A10B6229B928C0
:02400E00C43FAD
:00000001FF
