:020000040000FA
:1000000001288B018316003081008312850107309F
:100010009900831610309F0004308500123095003F
:10002000831281309F000330A3000516AC20AC2062
:100030000512AC20AC20A30B1528F620A2018512D6
:10004000AE0103100514851485100830A3002E207E
:10005000A30B2728AE0AAE0B39281E28AE0D0310BD
:100060000514FF30AB00AB0B3328051D2E14051013
:1000700008002E08A30085128516A30B3B28A0209C
:100080002E08B00030083F392D04B0000330AB001B
:100090005120AB0B48282E084030AD072E08A30096
:1000A0001E28A2011430A5008020A50B542874201E
:1000B0002F3084000230A400FF30A70000088C20FD
:1000C00000086820840AA40B5E282708682008001E
:1000D000A8000830A500A80D031870287420712806
:1000E0008020A50B6B288020A20A85162908AA006B
:1000F000AA0B782885122908AA00AA0B7D280800D7
:10010000A20A85122908AA00AA0B842885162908A4
:10011000AA00AA0B89280800A7060301A71B7A3AA0
:10012000271B3D3AA71A863A271A433AA719B93A24
:100130002719C43AA718623A2718313AA7000800CD
:100140000830A3000301A601A60A2E182607AE0C4C
:10015000A30BA428AE000800FF30AC00AB00AB0B33
:10016000AF28AC0BAE280800C630A0000130A100BB
:10017000A00BBB28A10BB828BD28000008007530D3
:10018000A900802080208020802080208020802066
:10019000802080208020802080208020802080205F
:1001A0008020802080208020802074207420742073
:1001B0007420742074207420742074208020742093
:1001C0007420802074207420742074207420802077
:1001D000802074208020742074207420802080204F
:1001E0007420802080207420B420BF280516A90A1E
:1001F0000130B0005120B4205120B4205120B4204F
:100200000130B0005120B4205120B4205120B4203E
:100210004130B0005120B4205120B4205120B420EE
:100220004130B0005120B4205120B4205120B420DE
:1002300005124130B0005120B4205120B42051208B
:10024000B4208130B0005120B4205120B42051207E
:10025000B4208130B0005120B4205120B42051206E
:10026000B4208130B0005120B4205120B42051205E
:10027000B420C130B0005120B4205120B42051200E
:10028000B420C130B0005120B4205120B4205120FE
:10029000B420C130B0005120B4205120B4205120EE
:0402A000B420F62868
:02400E00C43FAD
:00000001FF
