:020000040000FA
:1000000001288B018316003081008312850107309F
:100010009900831610309F0008308500123095003B
:10002000831281309F000510A80103108514051567
:1000300005110830A0002220A00B1B28A80AA80B3D
:100040002D281328A80D03108514FF30A500A50B3B
:100050002728851D2814851008002808A0000510F1
:100060000514A00B2F2893202808AD002D083F3938
:100070002704AD000530A5004520A50B3C28280825
:100080004030A7072808A00013288530AB001430A3
:10009000A2007420A20B492869202C308400023071
:1000A000A100FF30A90000087F2000085D20840A1D
:1000B000A10B532829085D200800AA000830A200DF
:1000C000AA0D03186528692066287420A20B6028F1
:1000D000742005142B08A400A40B6C2805102B0811
:1000E000A400A40B7128080005102B08A400A40B81
:1000F000772805142B08A400A40B7C280800A90667
:100100000301A91B7A3A291B3D3AA91A863A291AF2
:10011000433AA919B93A2919C43AA918623A2918CF
:10012000313AA90008000830A0000301A301A30A86
:1001300028182307A80CA00B9728A8000800FF3058
:10014000A600A500A50BA228A60BA1280800143024
:10015000A2007420A20BA92869200800AA00083078
:10016000A200AA0D0318B6286920B7287420A20B94
:10017000B1287420692008004130AD00FF30A00094
:10018000A00BC028FF30A000A00BC428FF30A000A7
:10019000A00BC828FF30A000A00BCC28FF30A00087
:1001A000A00BD02845204520452045204520403043
:1001B000AD07BE28BC288530AB000530A000A720C5
:1001C0000030AE204130AE208D30AE20A00BDF28B5
:1001D0000530A000A7200030AE208130AE20CA300C
:1001E000AE20A00BEA280530A000A7200030AE20EA
:1001F000C130AE20F730AE20A00BF5280530A000AE
:10020000A7200030AE200130AE20B030AE20A00BD1
:100210000029DB28FF30A000A00B0C29FF30A00034
:10022000A00B1029FF30A000A00B1429FF30A00064
:10023000A00B1829FF30A000A00B1C298530AB00B3
:100240000530A00074207420742074207420742061
:1002500074207420742074207420742074207420FE
:100260007420742074207420742074206920692004
:10027000692069206920692069206920692074202B
:10028000692069207420692069206920692069201B
:1002900074207420692074206920692069207420EA
:1002A00074206920742074206920A00B2229053055
:1002B000A000742074207420742074207420742092
:1002C000742074207420742074207420742074208E
:1002D000742074207420742074206920692069209F
:1002E00069206920692069206920692074206920BB
:1002F00074206920692069206920692069207420A0
:100300007420692074207420692069207420692079
:100310007420692074206920A00B59290530A000A1
:10032000742074207420742074207420742074202D
:10033000742074207420742074207420742074201D
:100340007420742074207420692069206920692039
:10035000692069206920692069207420692074203F
:100360007420692069206920692069207420742024
:1003700069207420742074207420692074207420F3
:10038000742074206920A00B90290530A0007420EF
:1003900074207420742074207420742074207420BD
:1003A00074207420742074207420742074207420AD
:1003B00074207420742069206920692069206920D4
:1003C00069206920692069207420692069206920DA
:1003D00069206920692069206920742074206920BF
:1003E00074206920742074206920692069206920A4
:0A03F00074206920A00BC7290A2918
:0207FE002434A1
:02400E00C13FB0
:00000001FF
