:020000040000FA
:1000000023280000000000000F2807398207013470
:100010000234043408341034203440348034A000D6
:1000200003088301A1000A08A2008A010408A300B2
:100030000B1972202308840022088A0021088300FB
:10004000A00E200E090007309F00103085008601A9
:1000500083160313203085000F30860064000330C0
:1000600081008B16831203138101A501FF208B17DA
:10007000A801A601A60A8020FF39031D3B28DD2028
:10008000FF39031D3B2806080F392E02031D3B28AC
:100090001230A5002F08C039260203193B282F086B
:1000A000C039A6002F083F3903193B28FF3E0F39FE
:1000B000A400A4193B280520A7008B13AF1A6728BA
:1000C00027080039031967282708A8066E2827087B
:1000D000FF3AA80527082F1EA8046E2800307920B3
:1000E0008B173B280B11A508031D7E280030A8059F
:1000F000103028048500280886000800A5030800A1
:10010000AC142C102E3084000330AD002C15A90146
:10011000851E8828AA01851E9428AA0A00003A3064
:100120002A02031C8B280134AA012C189F28851A47
:10013000A72861302A0203180234AA0A9728851ECC
:10014000A72861302A0203180234AA0A9F28013026
:10015000AC0613302A02031C03343A302A02031C73
:10016000B428AC1CB82804340230AC06AC1894286F
:100170002C1DC8282C1CC028291EA90A9428093423
:100180002C110C302902031C0A340A30A9009428CF
:10019000A9030319D52801302906031DD2282C18DC
:1001A000942807342C0CA40D94282C180834240807
:1001B0008000840AAD0BC52800342E308400033043
:1001C000AD00FF30A4000008A4060301A41B7A3A86
:1001D000241B3D3AA41A863A241A433AA419B93A80
:1001E0002419C43AA418623A2418313AA400840AA3
:1001F000AD0BE3282408031DFE2800340C3408004E
:040200000034003492
:02400E00423F2F
:00000001FF
