:020000040000FA
:100000000128831600308500013086008117831295
:100010008B150B1601178B178501860105118514A9
:10002000851005108514851005108514851005149C
:100030008514851005148514851005108514851008
:10004000051085148510051085148510051085147C
:1000500085100510851485100515051105108514EA
:100060008510051085148510051485148510051458
:1000700085148510051085148510051085148510CC
:10008000051085148510051085148510051085143C
:0A00900085100515051100004B282E
:02400E00F93F78
:00000001FF
