:020000040000FA
:1000000085EF07F01200FFFF04EF10F01200FFFF72
:10001000FFFFFFFFFFFFFFFF0CEF10F01200FFFFDD
:10002000FFFFFFFFFFFFFFFFFFFF00000401105174
:10003000600BE842E842E842E842E842000901E099
:1000400055D01151070A51E00B0A4FE0070A40E072
:10005000010A2CE00B0A28E0020A26E0030A22E04B
:10006000080A12E0010A0EE00F0A0AE0030A01E0A2
:100070003CD00001010EB06F0001040EB76F36D006
:1000800036D834D090D832D00001010EB06F0001C4
:10009000B90EB16F000EB26F0001B8930001010EEE
:1000A000B56F24D0A8D822D0F5D820D00001010EF9
:1000B000B06F040114510001B16FB26BBA0EB127D9
:1000C000000EB2230001B8930001010EB56F0ED0EF
:1000D0000001010EB06F04011451EA6ABA0FE96E13
:1000E000000EEA2212C4EFFF01D000D01200800EF1
:1000F0000401105D57E11351030A34E0010A10E0D6
:10010000030A01E04DD00001010EB06F0001600E46
:10011000B16F0C0EB26F120E0001B56FB66B40D00E
:100120000001010EB06F04011251F66EF76AD8900B
:10013000F636F7369E0EF6260D0EF7220900F5CF9D
:10014000B1F00A00F5CFB2F0020E0001F76AB12556
:10015000F66EB251F7220900F5CFB5F00A00F5CFDF
:10016000B6F01ED00001010EB06F04011251F66E00
:10017000F76AD890F636F736A20EF6260D0EF7225D
:100180000900F5CFB1F00A00F5CFB2F0B1C0F6FF2B
:10019000B2C0F7FF0800F5500001B56FB66B00D094
:1001A0000001B88312000001010EB06F0F0EE66E61
:1001B000710EE66E0F0EE66E1BEC06F0E552E55290
:1001C000E552010EE66EBA0EE66E000EE66E1BEC10
:1001D00006F0E552E552E55212C4B9F0040112519D
:1001E00004E10001050EB76F05D00001060EB76FE0
:1001F000E7EC04F012000401186B196B04011051B4
:100200001F0B020A15E0030A0FE0010A01E034D0D7
:100210000001010EB06F02D0040118810001B8A1E5
:1002200002D00401188328D00001010EB06F24D041
:100230000001010EB06F040114510F0B080DF350B3
:10024000016A000F006E040E01221451800B01E0C0
:10025000010E040DF35000010024B36F000E0120C5
:10026000B46FB3C0E9FFB4C0EAFFEF50040B03E082
:100270000401010E186F00D00001B0050AE1000171
:10028000180EB16F040EB26F0001B8930001020E98
:10029000B56F12000401120510E110511F0B000987
:1002A0000CE10001010EB06F030E0401115D03E1CA
:1002B0000001B88102D00001B891040112513AE165
:1002C00010511F0B020836E114510F0B000932E0E8
:1002D0000001010EB06F040114510F0B080DF35013
:1002E000016A000F006E040E01221451800B01E020
:1002F000010E040DF35000010024B36F000E012025
:10030000B46F030E0401115D07E1840EB3C0E9FF71
:10031000B4C0EAFFEF6E0ED014AF06D0B3C0E9FF51
:10032000B4C0EAFFEF6A06D0880EB3C0E9FFB4C0DC
:10033000EAFFEF6E12006C500BE1040100513C0B20
:10034000E842E8420D0802E108D801D03CD804D0C8
:10035000040E6C5C01E147D81200D9CFE6FFE1CF73
:10036000D9FFE6520001AF6BB06BB56BB66B16EC04
:1003700000F0DF6ADF50006E016A010E005C000EC3
:1003800001581BE20001B05101E017D0F76ADF34D9
:10039000FE0BF736F66EAC0EF6260D0EF7220900B0
:1003A000F5CF00F00800F5CF01F004D001C0FAFF4E
:1003B0000050F96EFBDFDF2ADDD7D5D8E552E552D4
:1003C000E7CFD9FF1200020E0001AF5D0AE192D81B
:1003D000040100BD03D0C80E006F02D0880E006F6C
:1003E00001D007D91200040E0001B75D0AE112C462
:1003F0006EFF6E50000803E2050EB76F02D0030EC9
:10040000B76F0001AF050AE10BD8040104BD03D0AA
:10041000C80E046F02D0880E046F01D0EAD8120013
:10042000D9CFE6FFE1CFD9FF020EE1260001080E89
:10043000B55D000EB65905E2B5C0DEFFB6C0DDFF02
:1004400003D0080EDE6EDD6A040104930491010EF0
:10045000DB500413DFCF05F4000EDB500001B55F65
:10046000010EDB50B65B180EB36F040EB46F0001C3
:10047000B8A31ED0D9CFE9FFDACFEAFFEE50ED10D6
:1004800016E0B1C0F6FFB2C0F7FF0800F550B3C0E8
:10049000E9FFB4C0EAFFEF6E0001B32B000EB423F6
:1004A000B12BB223DF06010E01E2DB06E3D71CD03D
:1004B000D9CFE9FFDACFEAFFEE50ED1015E0B1C079
:1004C000E9FFB2C0EAFFEF50B3C0E9FFB4C0EAFFF2
:1004D000EF6E0001B32B000EB423B12BB223DF0665
:1004E000010E01E2DB06E4D7D9CFE1FFE552E7CF09
:1004F000D9FF1200D9CFE6FFE1CFD9FF020EE126E6
:10050000030E04010015E76E010EE7CFDBFF01C407
:10051000DFFFDE500001B527DD50B623180EB16FA6
:10052000040EB26FD9CFE9FFDACFEAFFEE50ED103B
:1005300014E0B1C0E9FFB2C0EAFFEF50B3C0E9FF79
:10054000B4C0EAFFEF6EB32B000EB423B12BB2237D
:10055000DF06010E01E2DB06E5D7D9CFE1FFE55268
:10056000E7CFD9FF12006D980001B0510CE10401F2
:10057000080E016F100E026F040E036F840E006FE1
:100580000401046F35D0040110AF22D00001B55131
:100590000401165D0001B6510401175904E216C4A6
:1005A000B5F017C4B6F03CDF0001010EAF6F0401D7
:1005B000080E016F100E026F040E036F800E006FA5
:1005C0000401180E066F040E076FC80E046F10D0DA
:1005D0000001020EAF6F0401056BC80E046F040129
:1005E000080E016F180E026F040E036FC80E006F25
:1005F00012000001AF6B0401080E016F100E026FB4
:10060000040E036F880E006F0401046B1200550E78
:10061000A76EAA0EA76EA68212000001420E6A6F94
:10062000020E6B6F010E6C6F12000001606B665161
:10063000605D1EE260C000F0016A026A675100243A
:10064000F36E68510120F46E69510220F86EF4CF08
:10065000F7FFF3CFF6FF0800F5CF61F06051EA6ACB
:100660006A0FE96E000EEA2261C0EFFF602BDFD750
:10067000F86A1200840EA66E0001606B6651605D20
:1006800027E26051EA6A6A0FE96E000EEA22EFCFB4
:1006900003F060C000F0016A026A67510024F36E43
:1006A00068510120F46E69510220F86EF4CFF7FF13
:1006B000F3CFF6FF03C0F5FF0C001F0E60151F08F7
:1006C00003E06605605D01E1A2DF0001602BD6D783
:1006D00012000001606B6651605D20E2940EA66E10
:1006E0006051006E016A060ED89000360136E804AB
:1006F000FBE1026A01BE0268000167510024F36E4B
:1007000068510120F46E69510220F86EF4CFF7FFB2
:10071000F3CFF6FF7CDF0001602BDDD7F86A120013
:10072000A66A0001606B6651605D0EE2675160254C
:10073000A96EA6806051EA6A6A0FE96E000EEA228D
:10074000A8CFEFFF602BEFD712000001606B66515E
:10075000605D13E267516025A96E6051EA6A6A0F15
:10076000E96E000EEA22EF50A86E040EA66E4FDF6F
:10077000A6B2FED70001602BEAD71200C40EA66E07
:100780000001606B6651605D20E26051EA6A6A0FA9
:10079000E96E000EEA22EFCF03F060C000F0016ABC
:1007A000026A67510024F36E68510120F46E6951AA
:1007B0000220F86EF4CFF7FFF3CFF6FF03C0F5FF8A
:1007C0000C0025DF0001602BDDD7F86A1200400E17
:1007D000E66E650EE66E000EE66E36EC05F0E5524E
:1007E000E552E552000870E20001606B00016551BE
:1007F000FF0A57E0FA0A50E0010A3BE0070A34E03A
:10080000010A2DE0030A18E0070A16E0700A01E069
:100810005AD003DF0001040E606F04010CBFFDD746
:10082000400EE66E650EE66E000EE66EFCEC04F021
:10083000E552E552E55248D0F8DE050E000160278A
:1008400004010CBFFDD7400EE66E650EE66E000E8D
:10085000E66EFCEC04F0E552E552E55235D00ADFD5
:100860000001010E606F30D034DF0001010E606FB7
:100870002BD056DF050E0001602704010CBFFDD709
:10088000400EE66E650EE66E000EE66EFCEC04F0C1
:10089000E552E552E55218D058DF0001010E606FB5
:1008A00013D093EC05F00001636B646B00016307E8
:1008B000000E645B00016351641103E0000000005E
:1008C000F5D7FF0001D000D01200040110511F0B1A
:1008D000010801E079D0145101E076D0060E115DD7
:1008E0002EE11351230A28E0010A13E0030A01E074
:1008F00024D00001020EB06F0001B90505E100012E
:10090000840EB16F0C0EB26F090E0001B56FB66B9D
:1009100014D00001020EB06F0001B90505E100011D
:10092000810EB16F0D0EB26F0001B90504E11D0E0D
:100930000001B56FB66B01D000D00001B88304018F
:100940001051600BE842E842E842E842E842010800
:1009500001E03AD011510B0A31E0080A21E0090AFE
:1009600019E0080A09E00B0A05E0080A01E02CD0AA
:100970002CD82AD02BD828D00001020EB06F00014D
:10098000BB0EB16F000EB26F0001B8930001010EF3
:10099000B56F1AD00001020EB06F13C4BBF014D0B3
:1009A0000001020EB06F0001BC0EB16F000EB26FFD
:1009B0000001B8930001010EB56F06D00001020ED0
:1009C000B06F12C4BCF000D012001200120000017F
:1009D000BD6B1E0E716E0401400E096F200E0A6F72
:1009E000040E0B6F880E086F0401600E0E6F040E6C
:1009F0000F6F400E0C6F1200D9CFE6FFE1CFD9FF89
:100A0000E652FC0EDB50400805E2400EF36EFC0E91
:100A1000F3CFDBFFDF6AFC0EDB50DF5C19E2DF5057
:100A2000E76EFD0EDBCFE9FFFE0EDBCFEAFFE750FE
:100A3000E926000EEA22EF50E66EDF50EA6A600F08
:100A4000E96E040EEA22E552E750EF6EDF2AE3D7A3
:100A5000FC0EDBCF0DF4400E04010C170C7D880E4C
:100A60000C13E552E552E7CFD9FF1200D9CFE6FFCC
:100A7000E1CFD9FF0001BD6B040108BF30D0FC0EEF
:100A8000DBCF00F00951D880005403E2FC0E09C40A
:100A9000DBFF0001BD6BFC0EDB50BD5D19E2BD51FB
:100AA000EA6A200FE96E040EEA22EF50E66EBD51AD
:100AB000E76EFD0EDBCFE9FFFE0EDBCFEAFFE7506E
:100AC000E926000EEA22E552E750EF6EBD2BE3D790
:100AD0000401400E096F0817087D880E08130001F5
:100AE000BD5100D0E552E7CFD9FF12006DA60FD857
:100AF00002D06DB613D80001B70508E16DBA06D073
:100B0000686A696A69806988020EB76F12006D6A47
:100B1000696A6D860001010EB76F12006D6A696A1D
:100B20000001B76B12008EEF05F00001B75101E133
:100B30003AD06850040B04E06950040B01E038D847
:100B40006DB231D06850010B04E06950010B01E037
:100B500050D86850100B04E06950100B01E024D805
:100B60006850400B04E06950400B01E037D86850F2
:100B7000200B04E06950200B01E032D86850020BD2
:100B800004E06950020B01E032D8030E0001B75DAA
:100B900001E209D06850080B06E06950080B03E039
:100BA0009BEC01F068961200698468986D821200CF
:100BB0006D926994689412000001B8A10ED0F8DF1C
:100BC0006D840001080EBE6F070EBF6FBE07000EDA
:100BD000BF5BBE51BF11FAE16D941200689C120018
:100BE00070A003D0F9EC02F07090689A120068923D
:100BF00012006A6A686A9F0E6B6E7B0E696E6E6A7F
:100C00000F0EE66E710EE66E0F0EE66E14D8E5520C
:100C1000E552E552160E706E68A602D06896FCD7B3
:100C20006D98F9EC02F00001B8910001B96B000178
:100C3000030EB76F1200D9CFE6FFE1CFD9FFFD0E4B
:100C4000DBCFE9FFFE0EDBCFEAFFFC0EDB5004E05A
:100C5000EE6AFC0EDB06F9D7E552E7CFD9FF1200AA
:100C60001201000200000008D80433000100010254
:100C70000302090229000101028032090400000276
:100C800003000000092101000001221D0007058169
:100C90000340000107050103400001090220000193
:100CA000020480320904000002FF000000070581F1
:100CB0000340000107050103400001040309043457
:100CC000034D006900630072006F006300680069F3
:100CD000007000200054006500630068006E006F23
:100CE000006C006F0067007900200049006E00630F
:100CF000002E0048035000490043006B0069007457
:100D0000002000320020004D006900630072006F77
:100D10000063006F006E00740072006F006C006C66
:100D200000650072002000500072006F00670072C2
:100D30000061006D006D00650072001603500049EF
:100D400000430031003800460032003500350030E5
:100D50000030035000490043006B0069007400201C
:100D6000003200200043006F006E006600670075CF
:100D70000072006100740069006F006E0020003294
:100D8000000600FF0901A10119012940150026FFF5
:100D900000750895408102190129409102C0720C2A
:100DA0009B0CBB0CBF0CF30C3B0D510DCA082A0E5B
:100DB000F66E000EF76E000EF86E00010900F55099
:100DC000AA6F0900F550AB6F03E1AA6701D03DD0CF
:100DD0000900F550A56F0900F550A66F0900F55000
:100DE000A76F09000900F550E96E0900F550EA6E99
:100DF000090009000900F550A86F0900F550A96F16
:100E000009000900F6CFACF0F7CFADF0F8CFAEF0A7
:100E1000A5C0F6FFA6C0F7FFA7C0F8FF0001A853C2
:100E200002E1A95307E00900F550EE6EA807F8E2C9
:100E3000A907F9D7ACC0F6FFADC0F7FFAEC0F8FF09
:100E40000001AA07000EAB5BBFD71200D9CFE6FFA7
:100E5000E1CFD9FF030EE126938A818AF19E580ED5
:100E6000E66E6EEC07F0E55281AA0DD0FE0EF66E2E
:100E70007F0EF76EF86A0800F550DF6E550EDF5CE6
:100E800002E100EF10F018D822D8E7EC03F0D950B7
:100E9000010FE96EDACFEAFFEE50ED1001E18B7041
:100EA000010EDB06020E01E2DB06EED7D9CFE1FF31
:100EB000E552E7CFD9FF1200140E6F6E0001B76B39
:100EC0000001B86B0001B96B8B909490120076EC26
:100ED00005F06FBE02D095EC05F01200FF0EE35056
:100EE000076EEF0E01D0F30EE76EE72E75EF07F0F9
:100EF0000C0E066EE76AE72E7BEF07F0062E7AEF00
:100F000007F0072E73EF07F0120013EE00F023EE48
:100F100000F0F86A059CD7EC06F026EC07F0FDD748
:100F20001200FFFFFFFFFFFFFFFFFFFFFFFFFFFFBD
:100F3000FFFFFFFFFFFFFFFFFFFFFFFFFFFFFFFFC1
:100F4000FFFFFFFFFFFFFFFFFFFFFFFFFFFFFFFFB1
:100F5000FFFFFFFFFFFFFFFFFFFFFFFFFFFFFFFFA1
:100F6000FFFFFFFFFFFFFFFFFFFFFFFFFFFFFFFF91
:1020000071EF3EF0120000007AEF3AF0120000008B
:1020100000000000000000007AEF3AF0120000001B
:10202000FFFFFFFFFFFFFFFFFFFFD9CFE6FFE1CF7D
:10203000D9FFE652030ED26EA194A08492809282C0
:102040000D0EC16E030EC06E9284809489949286A8
:102050008096899692888998899A929A8A96939678
:102060008A889398938A818AF19E8A9493948B901C
:1020700094908B9294928B949494949C8B8C1E6AE3
:102080000001E76B0001010EE86F0201030EE06F33
:102090000201E16B0201010EE26F8FEC19F071ECAD
:1020A00017F069EC17F043EC17F00001400ED880F0
:1020B000E355010EE4550EE30001C00EE35D000E92
:1020C000E45908E30001E651AF0804E3500E0001B3
:1020D000E65D09E20001E36B010EE46F0001E56BD0
:1020E0000001800EE66F080ED56E040ECA6E4F0E0C
:1020F000CB6E0C0EBD6E1D0EBE6E0001400EE06F6D
:1021000000013E0EE16F00013C0EE26F02017E0E07
:10211000FA6F02012D0EFB6F070EB46EB56AF28CDA
:10212000F28E70EC3BF0040EE66E3CEC2AF0E552C9
:10213000500825E1050EE66E3CEC2AF0E5524B080E
:102140001EE1060EE66E3CEC2AF0E552320817E17D
:10215000070EE66E3CEC2AF0E5521D6E020E1E6E76
:10216000546AE66A110EE66EB7EC15F0E552E552D8
:10217000400EE66EDCEC16F0E5520201FA6FE55215
:10218000E552E7CFD9FF120004010CBFFDD7400E86
:10219000E66E400EE66E020EE66EF5EC39F0E552A4
:1021A000E552E5526EEC3DF01200D9CFE6FFE1CFEB
:1021B000D9FF020EE126DF6A010EDB6A81BA02D086
:1021C0000001E78D400EE66E000EE66E020EE66E32
:1021D00031EC3AF0E552E552E552000803E2DE52F6
:1021E000010EDD6E1E0406E1010EDB5002E064EC20
:1021F0002FF008D2020E1E5C09E1010EDB5004E054
:10220000760E0201005D02E007DAFCD10001E8B3BE
:102210007DDA010EDB5001E1F5D1DF50EA6A000FF3
:10222000E96E020EEA22EF50546E5450420A25E045
:10223000340A05E02C0A01E023D0DF2ADFD1020EA8
:102240001E5C17E18A881E6AE668040EE66E1AECC8
:102250002AF0E552E552E668050EE66E1AEC2AF021
:10226000E552E552E668060EE66E1AEC2AF0E552F3
:10227000E552E7EC1CF0DF2AC1D1AFEC1CF0BED177
:10228000A00E545C03E2400EDF6EB8D15450B90882
:1022900003E2400EDF6EB2D1A00E545E549E54464F
:1022A000F9505450F9261AD03FD06BD06ED071D06F
:1022B0007AD091D0B1D0B4D0BDD0C0D0C3D0C6D028
:1022C000C9D0CBD0CDD0D0D005D10DD115D11DD115
:1022D0001FD127D128D12FD17AD190D1DF28EA6A16
:1022E000000FE96E020EEA22EF50E66E020EDF24C6
:1022F000EA6A000FE96E020EEA22EF50E66EB7ECD2
:1023000015F0E552E552030EDF24EA6A000FE96E8C
:10231000020EEA22EF50E66EDCEC16F0E552020106
:10232000FA6F040EDF26D9D7DF28EA6A000FE96EBC
:10233000020EEA22EFCFE0F0020EDF24EA6A000F7D
:10234000E96E020EEA22EF50E66EDCEC16F0E55282
:10235000010F0001E16F020E0001E15D0001E26F7B
:10236000030EDF24EA6A000FE96E020EEA22EF5044
:10237000E66EDCEC16F0E5520201FB6F040EDF2680
:10238000ACD7C7EC1CF0DF2AA8D724EC18F0DF2A62
:10239000A4D7DF2AD9CFE6FFDACFE6FF29EC1AF07F
:1023A000E552E5529AD7DF2ADF28EA6A000FE96E84
:1023B000020EEA22EF50E66EDF50EA6A000FE96E85
:1023C000020EEA22EF50E66E3EEC19F0E552E552BD
:1023D000020EDF2682D7DF2ADF50EA6A000FE96E9D
:1023E000020EEA22EF50E66EDF28206A000F1F6E11
:1023F000020E20221FC0E6FF20C0E6FFF2EC1CF018
:10240000E552E552E552DF50EA6A000FE96E020E2E
:10241000EA22EF28DF2661D771EC17F0DF2A5DD7BB
:10242000DF2AD9CFE6FFDACFE6FFAAEC19F0E552B2
:10243000E55253D769EC17F0DF2A4FD79DEC18F01F
:10244000DF2A4BD78FEC19F0DF2A47D7F0EC18F0D2
:10245000DF2A43D7400EDF6E40D7FF00DF2A3DD78B
:1024600079EC17F0DF2A39D7DF28EA6A000FE96E26
:10247000020EEA22EF500001E36FE46B020EDF244C
:10248000EA6A000FE96E020EEA22EFCF1FF0206A1F
:102490001FBE20681FC020F01F6A1F500001E327E5
:1024A00020500001E423030EDF24EA6A000FE96EE6
:1024B000020EEA22EFCFE5F0040EDF24EA6A000FF5
:1024C000E96E020EEA22EFCFE6F020EC17F0050EDF
:1024D000DF2603D7DF2AD9CFE6FFDACFE6FFC5DA5A
:1024E000E552E552FAD6DF2AD9CFE6FFDACFE6FF8A
:1024F0003CDAE552E552F1D6DF2AD9CFE6FFDACF52
:10250000E6FF96D9E552E552E8D6DF2ADDD9E5D6D1
:10251000DF2ADFCFE6FF0EEC2FF0E552030EDF26B9
:10252000DCD6DF2ADAD6DF2ADFCFE6FF38D9E5525C
:10253000400EDF6ED2D6DF2ADF50DF2AEA6A000FB4
:10254000E96E020EEA22EF505F6EDF50DF2AEA6A80
:10255000000FE96E020EEA22EF50546EDF50DF2AC0
:10256000EA6A000FE96E020EEA22EF50566EDF5063
:10257000DF2AEA6A000FE96E020EEA22EF50586E77
:10258000DF50DF2AEA6A000FE96E020EEA22EF50FE
:10259000596EDF50DF2AEA6A000FE96E020EEA2266
:1025A000EF505A6EDF50DF2AEA6A000FE96E020E22
:1025B000EA22EF285B6EDF50DF2AEA6A000FE96E3D
:1025C000020EEA22EF505E6EB6EC2DF086D6DF2AC0
:1025D000DF28EA6A000FE96E020EEA22EF50E66E8B
:1025E000DF50EA6A000FE96E020EEA22EF50E66E53
:1025F0007BD9E552E552020EDF266FD6400EDF5C36
:1026000001E20BD6020EE15C02E2E16AE552E16E04
:10261000E552E7CFD9FF1200F29A870ED56EF2A4E9
:1026200029D0D20ED76E3A0ED66EF294542A545058
:10263000050801E2546A040E545C06E2010E5414CB
:10264000E8B08A88E8A08A98300E0001E71512E009
:102650008A8881BAFED78F0E0001E717F00EE66E6A
:1026600046EC3EF0E55281AAFED7F00EE66E46EC4F
:102670003EF0E5520001E7AD47D08A880CEC31F01E
:102680008A888A8681AAFED7546AE66A110EE66EA7
:102690006EDAE552E552400EE66E8EDBE55202013F
:1026A000FA6F300E0001E71502E081BAFED7FC0E8A
:1026B0000001E81506E0080EE66E4CEC36F0E55237
:1026C00010D0190406E1040EE66E4CEC36F0E5522B
:1026D00008D01650171005E0060EE66E4CEC36F0EA
:1026E000E552F00EE66E46EC3EF0E55281AAFED7CA
:1026F000F00EE66E46EC3EF0E5528F0E0001E71755
:102700000001E86B0001E79D8B901200D9CFE6FF36
:10271000E1CFD9FFE6521D501AE01D50DF6E1D6A51
:102720001A50E66EB5EC27F0E552DF50010805E2DD
:102730001B50E66EB5EC27F0E552DF50020805E2CB
:102740001C50E66EB5EC27F0E5521D50E6E10201A3
:10275000E551E61108E0A050020B05E1EAEC27F094
:10276000196EA182A0828150100B14E1C250020B9D
:1027700011E10201FA51C45C0AE20C0E0201FC5D97
:1027800003E18A948A8802D00201FC2B02D0020164
:10279000FC6BC282E552E552E7CFD9FF1200D9CFD8
:1027A000E6FFE1CFD9FFFE0EDBCFE6FF22EC2FF0F4
:1027B000E552000939E0020E1E6E546AE66A110EF7
:1027C000E66ED5D9E552E552400EE66EF5DAE552F1
:1027D0000201FA6F500EE66E040EE66E1AEC2AF055
:1027E000E552E5524B0EE66E050EE66E1AEC2AF047
:1027F000E552E552320EE66E060EE66E1AEC2AF04F
:10280000E552E552FE0EDB50030FEA6A000FE96E57
:10281000020EEA22EF501D6E1D50E66E070EE66EA8
:102820001AEC2AF0E552E552E552E7CFD9FF120043
:10283000D9CFE6FFE1CFD9FFF29E85EC3BF0050E44
:10284000C26EC282FD0EDBCFE9FFFE0EDBCFEAFFD8
:10285000EF50EF2AEA6A000FE96E020EEA22EF500B
:10286000146EFD0EDBCFE9FFFE0EDBCFEAFFEF506B
:10287000EF2AEA6A000FE96E020EEA22EF50156EA7
:10288000166A176A186A196A1A6A1D6A0001E883CB
:1028900092968986928492888A94899A2E0EB46E32
:1028A000A50EB56E0C0EE66E8DEC3EF0E5529D90D9
:1028B000A092910ECD6E910EB16EA19CA08CF28E65
:1028C000E552E7CFD9FF1200F29E0001E893A09CE9
:1028D0009D90A092CD6AB16A070EB46EB56A9286D9
:1028E00070EC3BF0F28E1200D9CFE6FFE1CFD9FFBA
:1028F000030EE126FD0EDB50216E226A21C022F07C
:10290000216AFE0EDB50000121241F6E000E2220E2
:10291000206E010E1FC0DBFF020E20C0DBFFDF6A4E
:10292000DF501F6E206AD890205004E6800E1F5C96
:10293000000E205810E2010EDBCFE9FFDB2A020E69
:10294000DBCFEAFF01E3DB2AEF50E66EB5EC27F0C0
:10295000E552DF2AE5D7030EE15C02E2E16AE552C7
:10296000E16EE552E7CFD9FF1200D9CFE6FFE1CF04
:10297000D9FF050EE126FD0EDBCFE9FFFE0EDBCF12
:10298000EAFFEF50EF2AEA6A000FE96E020EEA2230
:10299000040EEFCFDBFFFD0EDBCFE9FFFE0EDBCF3A
:1029A000EAFFEF50EF2AEA6A000FE96E020EEA2210
:1029B000EF50E66ED950020FE96EDACFEAFFE5522A
:1029C000E750EE6EED6AD950020FE96EDACFEAFFFA
:1029D000200ED880EE54000EED5407E2200EF36E68
:1029E000020EF3CFDBFF030EDB6AD950020FE96E54
:1029F000DACFEAFFEE50ED1001E12DD0DE6ADD6A9C
:102A0000DECF1FF0DDCF20F0020EDBCF21F0030E72
:102A1000DBCF22F021501F5C225020581AE2040E16
:102A2000DBCFF3FFDB2AF350E66E3CEC2AF0E552F5
:102A3000E66EDECFE9FFDDCFEAFF400EE926020EAB
:102A4000EA22E552E750EF6EDF2A010E01E3DB2AAE
:102A5000D7D7C4EC10F0050EE15C02E2E16AE55262
:102A6000E16EE552E7CFD9FF1200D9CFE6FFE1CF03
:102A7000D9FF050EE126FD0EDBCFE9FFFE0EDBCF11
:102A8000EAFFEF50EF2AEA6A000FE96E020EEA222F
:102A9000040EEFCFDBFFFD0EDBCFE9FFFE0EDBCF39
:102AA000EAFFEF50EF2AEA6A000FE96E020EEA220F
:102AB000EF50E66ED950020FE96EDACFEAFFE55229
:102AC000E750EE6EED6AD950020FE96EDACFEAFFF9
:102AD000200ED880EE54000EED5407E2200EF36E67
:102AE000020EF3CFDBFF030EDB6AD950020FE96E53
:102AF000DACFEAFFEE50ED1001E12FD0DE6ADD6A99
:102B0000DECF1FF0DDCF20F0020EDBCF21F0030E71
:102B1000DBCF22F021501F5C225020581EE2FD0E18
:102B2000DBCFE9FFFE0EDBCFEAFFEF50EF2AEA6AC8
:102B3000000FE96E020EEA22EF50E66E040EDBCFC4
:102B4000F3FFDB2AF350E66E1AEC2AF0E552E55269
:102B5000DF2A010E01E3DB2AD3D7050EE15C02E296
:102B6000E16AE552E16EE552E7CFD9FF1200D9CF15
:102B7000E6FFE1CFD9FF030EE126FE0EDB50226E09
:102B8000236A22C023F0226AFD0EDB5000012224BA
:102B90001F6E000E2320206E216A20BE21681FC0F8
:102BA000DFFF010E20C0DBFF020E21C0DBFFD9CF0B
:102BB000E9FFDACFEAFF060EE76ED890020EEB329D
:102BC000010EEB32EF32E706F8E1E5C01FF0206AB4
:102BD000216A1FAE02D020682168D9CFE9FFDACF81
:102BE000EAFF1F50EE262050EE222150EE22E6C0D2
:102BF0001FF0206A216AD9CFE9FFDACFEAFF1FC0B0
:102C00000CF020C00DF021C00EF0EECF07F0EECF9B
:102C100008F0EFCF09F015EC3DF006C0EDFF05C060
:102C2000EDFF04C0EFFFD9CFE9FFDACFEAFFD8907C
:102C3000020EEB32010EEB32EF32080E226ED9CFCC
:102C4000E9FFDACFEAFF22501F0BEECF1FF0EECFE5
:102C500020F0EECF21F006E0D890213220321F3252
:102C6000E806FAE11F50BE6ED9CFE9FFDACFEAFFDE
:102C7000EE52EE6AEE6ACF0EBD14226E236A246A0B
:102C8000020E286ED9CFE9FFDACFEAFF28501F0BDA
:102C9000EECF25F0EECF26F0EECF27F006E0D8906D
:102CA000273226322532E806FAE1225025101F6E1F
:102CB00023502610206E24502710216E1F50BD6E09
:102CC000030EE15C02E2E16AE552E16EE552E7CF14
:102CD000D9FF1200D9CFE6FFE1CFD9FF040EE126DC
:102CE000FD0EDBCF1FF0FE0EDBCF20F0000E1FC06D
:102CF000DBFF010E20C0DBFF020EDB6A030EDB6A86
:102D0000E3C01FF0E4C020F0216A226AD9CFE9FFB6
:102D1000DACFEAFF1FC00BF020C00CF021C00DF08D
:102D200022C00EF0EECF06F0EECF07F0EECF08F0A7
:102D3000EFCF09F00EEC3EF005C0EDFF04C0EDFF53
:102D400003C0EDFF02C0EFFFD9CFE9FFDACFEAFF02
:102D5000080EE76ED890030EEB32020EEB32010E36
:102D6000EB32EF32E706F6E1D9CFE9FFDACFEAFF3F
:102D7000D880FF0EEE54FF0EEE54000EEE54000EFF
:102D8000EE5406E2DE68DE68DE6ADD6ADD52DD52A0
:102D9000DFCF1FF0010EDBCF20F01FC0F3FF20C0FC
:102DA000F4FF00D0040EE15C02E2E16AE552E16E5C
:102DB000E552E7CFD9FF1200D9CFE6FFE1CFD9FF27
:102DC000020EE126E3C01FF0E4C020F0000ED88020
:102DD0001F56020E20561FC0DEFF20C0DDFFFE0E74
:102DE000DB501F6E206AD9CFE9FFDACFEAFF1FC0A0
:102DF0000DF020C00EF0EECF08F0EDCF09F0F7ECAB
:102E00003CF006C0EEFF07C0EDFFD9CFE9FFDACFF7
:102E1000EAFF080E0F0B06E0EC52D890ED32EF32CD
:102E2000E806FAE1DF5000D01F6E020EE15C02E21C
:102E3000E16AE552E16E1F50E552E7CFD9FF12007B
:102E4000E3C0E6FFE66A1AEC2AF0E552E552E4C078
:102E50001FF0206A1F50E66E010EE66E1AEC2AF093
:102E6000E552E552E5C0E6FF020EE66E1AEC2AF0E6
:102E7000E552E552E6C0E6FF030EE66E1AEC2AF0D4
:102E8000E552E5521200E66A3CEC2AF0E5520001F8
:102E9000E36FE46B010EE66E3CEC2AF0E5521F6E28
:102EA000206A1FC020F01F6A1F500001E327205036
:102EB0000001E423020EE66E3CEC2AF0E55200012C
:102EC000E56F030EE66E3CEC2AF0E5520001E66F7A
:102ED00012000001E96B0001EA6B0001EB6BEC6B87
:102EE00012000201E36B0201E46B0201E56BE66B89
:102EF0001200D9CFE6FFE1CFD9FF060EE126DE6A48
:102F0000DD6A020EDB6A030EDB6A040EDB6A050E65
:102F1000DB6A040EDB6A050EDB6A040EDBCF1FF0F2
:102F2000050EDBCF20F0D890205004E6200E1F5C69
:102F3000000E20581EE2040EDBCFE9FF050EDBCFAA
:102F4000EAFF030EEA02F3CFEAFF030EE902F3CF32
:102F5000E9FFF450EA26800EE926020EEA22EF503D
:102F6000DE26000EDD22040EDB2A050E01E3DB2A3D
:102F7000D4D7040EDB6A050EDB6A040EDBCF1FF02C
:102F8000050EDBCF20F0DECF21F0DDCF22F0205088
:102F90002218E8AE02D0223404D021501F5C225007
:102FA00020581EE2040EDB500001F4250F01E96EEB
:102FB000050EDB500001F5210F01EA6EEF501F6E88
:102FC000206AD950020FE96EDACFEAFF1F50EE26D1
:102FD0002050ED22040EDB2A050E01E3DB2ACDD7BB
:102FE000DECF1FF0DDCF20F01F500201406FDECF9B
:102FF0001FF0DDCF20F020C01FF0206A1FC041F27B
:10300000FF0EE76E020EDBCF1FF0030EDBCF20F0CA
:10301000E7501F16206A1FC042F2020EDBCF1FF0DE
:10302000030EDBCF20F020C01FF0206A1FC043F248
:10303000C4EC10F0060EE15C02E2E16AE552E16EDA
:10304000E552E7CFD9FF1200D9CFE6FFE1CFD9FF94
:10305000020EE12685EC3BF0040EE66E60D8E552E8
:10306000C450216E226A21C022F0216AC35000019F
:1030700021241F6E000E2220206E1FC0DEFF20C004
:10308000DDFFDECFE6FFDDCFE6FF24DEE552E552D1
:10309000F3CFDEFFF4CFDDFFDFCF40F2DECF1FF056
:1030A000DDCF20F020C01FF0206A1FC041F2E66A89
:1030B00036D8E552C450216E226A21C022F0216A1E
:1030C000C350000121241F6E000E2220206E1FC05D
:1030D000DEFF20C0DDFFDECFE6FFDDCFE6FFFADD5D
:1030E000E552E552F3CFDEFFF4CFDDFFDFCF42F252
:1030F000DECF1FF0DDCF20F020C01FF0206A1FC000
:1031000043F2C4EC10F070EC3BF0020EE15C02E222
:10311000E16AE552E16EE552E7CFD9FF1200D9CF5F
:10312000E6FFE1CFD9FFFE0EDB28C26EC282C2B23B
:10313000FED7E552E7CFD9FF1200D9CFE6FFE1CFA6
:10314000D9FF020EE126010EEBC0DBFF010EDB50C2
:103150003F0803E2DE523F0EDD6E010EDBCF40F290
:10316000010EDF6E010EDB50D880DF5423E3000137
:10317000EA51EA2BEA6A600FE96E000EEA22EF508C
:10318000E66EDF50EA6A400FE96E020EEA22E5526F
:10319000E750EF6E0001EA511F6E206AD890205070
:1031A00004E6800E1F5C000E205802E30001EA6B6B
:1031B000DF2AD8D7010EDB501F6E206A1F50000196
:1031C000EB5F20500001EC5BC4EC10F0020EE15C00
:1031D00002E2E16AE552E16EE552E7CFD9FF120063
:1031E000D9CFE6FFE1CFD9FF020EE126010EEBC0F9
:1031F000DBFF010EDB50400803E2DE52400EDD6EC5
:10320000DF6A010EDB50DF5C23E20001EA51EA2BAA
:10321000EA6A600FE96E000EEA22EF50E66EDF50B8
:10322000EA6A400FE96E020EEA22E552E750EF6EBD
:103230000001EA511F6E206AD890205004E6800EEB
:103240001F5C000E205802E30001EA6BDF2AD9D789
:10325000010EDB501F6E206A1F500001EB5F2050F3
:103260000001EC5BC4EC10F0020EE15C02E2E16AEA
:10327000E552E16EE552E7CFD9FF1200D9CFE6FF64
:10328000E1CFD9FF200EF36EFE0EDBCFF4FFF3503B
:10329000F45C0DE2FE0EDB50030DF3CFE9FFF4CF3B
:1032A000EAFF800EE926020EEA22EF5003E1000158
:1032B000E88B31D0FE0EDB50030DF3CFE9FFF4CFE6
:1032C000EAFF800EE926020EEA22EF50E66EFE0EBD
:1032D000DB50030DF3CFE9FFF4CFEAFF800EE926C0
:1032E000020EEA22EE5200010001F451EE241F6E9C
:1032F00000010001F551EE20206E1FC0E6FF20C046
:10330000E6FF70DBE552E552E552FD0EDB06FD0EF1
:10331000DB500008CFE3E552E7CFD9FF1200D9CF49
:10332000E6FFE1CFD9FFE652DF6A200EDF5C0DE257
:10333000DF50030DF3CFE9FFF4CFEAFF800EE9265B
:10334000020EEA22EF6ADF2AF0D7E552E552E7CF14
:10335000D9FF1200D9CFE6FFE1CFD9FF040EE12655
:10336000FD0EDBCFE9FFFE0EDBCFEAFFEF50EF2AC9
:10337000EA6A000FE96E020EEA22EF50E66ED950BB
:10338000020FE96EDACFEAFFE552E750EE6EED6A22
:10339000020EDB500201E52500011F6E030EDB501B
:1033A0000201E6210001206E000ED8801F54010E9C
:1033B000205403E20001E88F42D0DE6ADD6ADECFEE
:1033C0001FF0DDCF20F0020EDBCF21F0030EDBCFAC
:1033D00022F021501F5C2250205831E2FD0EDBCF3D
:1033E000E9FFFE0EDBCFEAFFEF50EF2AEA6A000F9B
:1033F000E96E020EEA22EF50E66E0201E351E32B82
:10340000EA6A000FE96E010EEA22E552E750EF6E1C
:103410000201E3511F6E206AD890205004E6000E8E
:103420001F5C010E205802E30201E36B0201E52B51
:10343000000EE623DF2A010E01E3DB2AC0D7040ECB
:10344000E15C02E2E16AE552E16EE552E7CFD9FFC5
:103450001200D9CFE6FFE1CFD9FF080EE126FD0E1D
:10346000DBCFE9FFFE0EDBCFEAFFEF28EA6A000FB1
:10347000E96E020EEA22EFCF1FF0206A1FBE20681D
:10348000040E1FC0DBFF050E20C0DBFF040EDBCFE8
:103490001FF0050EDBCF20F0203404E21F503D0862
:1034A000000E205403E20001E88D4FD2FD0EDBCF69
:1034B000E9FFFE0EDBCFEAFFEF50EA6A000FE96E8C
:1034C000020EEA22EFCF1FF0206A1FBE2068060E10
:1034D0001FC0DBFF070E20C0DBFF020EDB6A030EFE
:1034E000DB6ADE6ADD6ADECF1FF0DDCF20F0D89028
:1034F000205004E6200E1F5C000E205823E2DECF91
:10350000E9FFDDCFEAFF030EEA02F3CFEAFF030E85
:10351000E902F3CFE9FFF450EA26800EE926020E15
:10352000EA22EF501F6E206AD950020FE96EDACFFF
:10353000EAFF1F50EE262050ED22DF2A010E01E3A4
:10354000DB2AD1D7060EDBCFE9FF070EDBCFEAFF80
:10355000030EEA02F3CFEAFF030EE902F3CFE9FF1D
:10356000F450EA26800EE926020EEA22EF501F6E82
:10357000206AD950020FE96EDACFEAFF1F50EE5EE3
:103580002050ED5A040EDBCF1FF0050EDBCF20F0EC
:10359000020EDBCF21F0030EDBCF22F0000ED8802D
:1035A0002156030E225622502018E8AE02D02034B5
:1035B00004D01F50215C2050225803E20001E88D06
:1035C000C4D1060EDBCF1FF0070EDBCF20F0203476
:1035D00004E21F501F08000E205403E20001E88D92
:1035E000B4D1060EDBCFE9FF070EDBCFEAFF030EF7
:1035F000EA02F3CFEAFF030EE902F3CFE9FFF4504A
:10360000EA26800EE926020EEA22EF5001E106D1F9
:10361000060EDBCFE9FF070EDBCFEAFF030EEA025F
:10362000F3CFEAFF030EE902F3CFE9FFF450EA26F5
:10363000800EE926020EEA22EF501F6E206A000E6D
:10364000D8801F56030E20561F06000E205A040E67
:103650001FC0DBFF050E20C0DBFF060EDBCFE9FF3E
:10366000070EDBCFEAFF030EEA02F3CFEAFF030EF9
:10367000E902F3CFE9FFF450EA26800EE926020EB4
:10368000EA22EE52EECFDEFFEDCFDDFFDECF1FF000
:10369000DDCF20F0040EDBCF21F0050EDBCF22F0D2
:1036A00020502218E8AE02D0223404D021501F5CF2
:1036B0002250205835E2060EDBCFE9FF070EDBCFA4
:1036C000EAFF030EEA02F3CFEAFF030EE902F3CFAB
:1036D000E9FFF450EA26800EE926020EEA22EF50B6
:1036E0000001206AF4251F6EF5512022DE501F24B0
:1036F000E96EDD502020EA6EEF50E66EDE500001EC
:10370000F4250F01E96EDD500001F5210F01EA6E8D
:10371000E552E750EF6EDF2A010E01E3DB2AB6D750
:10372000DE6ADD6ADECF1FF0DDCF20F0D8902050BA
:1037300004E6200E1F5C000E205870E2DECFE9FF89
:10374000DDCFEAFF030EEA02F3CFEAFF030EE90240
:10375000F3CFE9FFF450EA26800EE926020EEA22B2
:10376000EECF1FF0EECF20F0EFCF21F0060EDBCF33
:10377000E9FF070EDBCFEAFF030EEA02F3CFEAFF11
:10378000030EE902F3CFE9FFF450EA26800EE926A2
:10379000020EEA22EE52EECF22F0EFCF23F000012C
:1037A00023502118E8AE02D0213404D02050225CEE
:1037B000215023582EE2060EDBCFE9FF070EDBCFA8
:1037C000EAFF030EEA02F3CFEAFF030EE902F3CFAA
:1037D000E9FFF450EA26800EE926020EEA22EF50B5
:1037E0001F6E206ADECFE9FFDDCFEAFF030EEA029B
:1037F000F3CFEAFF030EE902F3CFE9FFF450EA2624
:10380000800EE926020EEA22EE521F50EE5E205094
:10381000ED5ADF2A010E01E3DB2A84D7FD0EDBCF50
:10382000E9FFFE0EDBCFEAFFEF28EA6A000FE96E40
:10383000020EEA22EF50E66E060EDBCFE9FF070E1E
:10384000DBCFEAFF030EEA02F3CFEAFF030EE90241
:10385000F3CFE9FFF450EA26800EE926020EEA22B1
:10386000E552E750EF6E060EDBCFE9FF070EDBCF28
:10387000EAFF030EEA02F3CFEAFF030EE902F3CFF9
:10388000E9FFF450EA26800EE926020EEA22EE5203
:10389000020EDBCFEEFF030EDBCFEDFF020E1F6E3D
:1038A000FD0EDBCFE9FFFE0EDBCFEAFF1F50EF2658
:1038B000DE6ADD6ADECF1FF0DDCF20F0060EDBCF43
:1038C000E9FF070EDBCFEAFF030EEA02F3CFEAFFC0
:1038D000030EE902F3CFE9FFF450EA26800EE92651
:1038E000020EEA22EF50000120AE02D0D89003D0A1
:1038F0001F5C000E205829E2FD0EDBCFE9FFFE0E13
:10390000DBCFEAFFEF50EF2AEA6A000FE96E020E02
:10391000EA22EF50E66E020EDB500001F4250001B2
:103920001F6E030EDB500001F5210001206EDE50FA
:103930001F24E96EDD502020EA6EE552E750EF6E5D
:10394000DF2A010E01E3DB2AB5D7080EE15C02E2B3
:10395000E16AE552E16EE552E7CFD9FF1200F29E2F
:1039600069EC3DF0840EA66EFE0EF66E7F0EF76ECD
:10397000F86AF56A0C00550EA76EAA0EA76EA6820D
:103980004E0EE66E46EC3EF0E552FF001200F00EE1
:103990000001E71781A402D00001E78780AA02D0C6
:1039A0000001E78581B802D00001E78381A602D03B
:1039B0000001E781E7C040F2E8C041F28F0E00014C
:1039C000E7170001E86B8B90C4EC10F012000201C5
:1039D000020E406F02011E0E416F0201426BC4ECE9
:1039E00010F01200D9CFE6FFE1CFD9FF0D0EE1268E
:1039F000DF6A0B0EDB6A0C0EDB6AF29A070ED56EDD
:103A0000FC0EDB5004E0FC0EDB503D0804E200013C
:103A1000E88B6BEF24F0FE0E0001E81502E06BEF7F
:103A200024F0FC0EDB50DF5C02E36BEF24F0DF5090
:103A3000E76EFD0EDBCFE9FFFE0EDBCFEAFFE750BE
:103A4000E926000EEA22EF50546EB30E545C04E2F5
:103A5000FC0EDB50DF6EDFD7D50E545C01E2E4D301
:103A6000D50E545E549E5446F9505450F926C2D394
:103A7000B6D3F9D21BD36BD337D3F1D2E8D27ED2EF
:103A800075D260D257D2FDD12FD2F7D1E2D1A9D1D0
:103A900071D148D15BD103D1F1D0DCD0C3D0AAD051
:103AA00081D079D06DD061D049D032D02ED02AD0FB
:103AB00026D022D01DD018D014D010D00CD008D0D1
:103AC00004D000D08A98DF2AADD38A88DF2AAAD30F
:103AD0008A86DF2AA7D38A96DF2AA4D38A84DF2A9C
:103AE000A1D38A94DF2A9ED30C0EBA6EDF2A9AD312
:103AF000BA6A8B92DF2A96D3898ADF2A93D3899A6E
:103B0000DF2A90D38B80DF2A8DD38B90DF2A8AD354
:103B1000DF2ADF50E76EFD0EDBCFE9FFFE0EDBCFC5
:103B2000EAFFE750E926000EEA22EFCFE0F2E0C21A
:103B3000E6FF8AEC28F0E552DF2A74D3DF2A080E6C
:103B4000E66EDF50E76EFD0EDBCFE9FFFE0EDBCF4A
:103B5000EAFFE750E926000EEA22EF50E66E1AEC83
:103B600028F0E552E552DF2A5DD3080EE66EEAEC56
:103B700027F0E66E1AEC28F0E552E552DF2A52D320
:103B8000080EE66E6CEC27F0E552E66EB5EC27F019
:103B9000E552DF2A47D3080EE66E6CEC27F0E552BB
:103BA000DF2A40D3DF2ADF50E76EFD0EDBCFE9FFCF
:103BB000FE0EDBCFEAFFE750E926000EEA22EF50C7
:103BC000E66EDF50E76EFD0EDBCFE9FFFE0EDBCFCA
:103BD000EAFFE750E926000EEA22010EE926000E70
:103BE000EA22EF50E66E1AEC28F0E552E552020E9A
:103BF000DF2618D3DF2ADF50E76EFD0EDBCFE9FFAB
:103C0000FE0EDBCFEAFFE750E926000EEA22EF5076
:103C1000E66EEAEC27F0E66E1AEC28F0E552E55283
:103C2000DF2A00D3DF2ADF50E76EFD0EDBCFE9FF8E
:103C3000FE0EDBCFEAFFE750E926000EEA22EF5046
:103C4000E66E6CEC27F0E552E66EB5EC27F0E55237
:103C5000DF2AE8D2DF2ADF50E76EFD0EDBCFE9FF77
:103C6000FE0EDBCFEAFFE750E926000EEA22EF5016
:103C7000E66E6CEC27F0E552DF2AD4D2DF2ADF5063
:103C8000E76EFD0EDBCFE9FFFE0EDBCFEAFFE7506C
:103C9000E926000EEA22EFCFE1F2DF2AC3D20B0EB3
:103CA000DB500EE0040EDB06040EDB5005E10B0ECC
:103CB000DB6A030EDF26B6D2050EDB50DF6EB2D212
:103CC000010EF36E0B0EF3CFDBFFDF50E76EFD0E40
:103CD000DBCFE9FFFE0EDBCFEAFFE750E926000E5F
:103CE000EA22010EE926000EEA22EF50DF5CE76EC1
:103CF000050EE7CFDBFFDF50E76EFD0EDBCFE9FF00
:103D0000FE0EDBCFEAFFE750E926000EEA22020EA4
:103D1000E926000EEA22040EEFCFDBFF050EDB5092
:103D2000DF6E80D2DF2ADF50E76EFD0EDBCFE9FFCA
:103D3000FE0EDBCFEAFFE750E926000EEA22EF5045
:103D4000E66E04EC27F0E552DF2A6CD2DF2ADF5062
:103D5000E76EFD0EDBCFE9FFFE0EDBCFEAFFE7509B
:103D6000E926000EEA22EF50E66E9AEC24F0E552C6
:103D7000DF2A58D20001E905EA6A600FE96E000EF9
:103D8000EA22010EEFCFDBFFDF50E76EFD0EDBCF47
:103D9000E9FFFE0EDBCFEAFFE750E926000EEA223C
:103DA000010EE926000EEA22EF50F36E010EDB5001
:103DB000F35C14E1DF50E76EFD0EDBCFE9FFFE0E92
:103DC000DBCFEAFFE750E926000EEA22020EE926E1
:103DD000000EEA22EF50DF24DF6E02D0030EDF2652
:103DE00021D20001E905EA6A600FE96E000EEA22BD
:103DF000010EEFCFDBFF010EDBCF1FF0DF50E76ED0
:103E0000FD0EDBCFE9FFFE0EDBCFEAFFE750E92630
:103E1000000EEA22010EE926000EEA22EF50D880B9
:103E20001F5414E2DF50E76EFD0EDBCFE9FFFE0EFC
:103E3000DBCFEAFFE750E926000EEA22020EE92670
:103E4000000EEA22EF50DF24DF6E02D0030EDF26E1
:103E5000E9D1DF50E76EFD0EDBCFE9FFFE0EDBCFD1
:103E6000EAFFE750E926000EEA22010EE926000EDD
:103E7000EA22EF50DF24DF6ED5D1FC0EDB50DF6E7F
:103E8000D1D1DF2ADF50DF2AE76EFD0EDBCFE9FF5D
:103E9000FE0EDBCFEAFFE750E926000EEA22EF50E4
:103EA000206A000F1F6E0F0E2022090E1FC0DBFFBD
:103EB0000A0E20C0DBFFDF50DF2AE76EFD0EDBCFEE
:103EC000E9FFFE0EDBCFEAFFE750E926000EEA220B
:103ED000EF50E66E090EDBCFE9FF0A0EDBCFEAFFFB
:103EE000E552E750EF6E9ED1DF2ADF50E76EFD0E00
:103EF000DBCFE9FFFE0EDBCFEAFFE750E926000E3D
:103F0000EA22EF50206A000F1F6E0F0E2022090ECA
:103F10001FC0DBFF0A0E20C0DBFF090EDBCFE9FF6D
:103F20000A0EDBCFEAFFEF50E66EB5EC27F0E55264
:103F3000DF2A78D1DF2A2BEC25F0E66EB5EC27F0EE
:103F4000E55270D1DF2ADF50DF2AE76EFD0EDBCFAE
:103F5000E9FFFE0EDBCFEAFFE750E926000EEA227A
:103F6000EF50E66EADEC24F0E5525CD1DF2AEAECCE
:103F700027F0E66EADEC24F0E55254D10C0EDB5088
:103F800016E0070EDB06080E01E2DB06D950070F2C
:103F9000E96EDACFEAFFEE50ED1005E10C0EDB6AB8
:103FA000020EDF263FD1060EDB50DF6E3BD1DF5025
:103FB000E76EFD0EDBCFE9FFFE0EDBCFEAFFE75039
:103FC000E926000EEA22010EE926000EEA22EF5051
:103FD000DF5CE76E060EE7CFDBFFEAEC27F0E66E6C
:103FE000D950070FE96EDACFEAFFE552E750EE6EDF
:103FF000ED6AEAEC27F0216E226A086A010E096E6A
:1040000021C00DF022C00EF0CAEC3CF006C01FF03B
:1040100007C020F0D950070FE96EDACFEAFF1F5032
:10402000EE262050ED22D950070FE96EDACFEAFFD5
:10403000EE50ED1003E1020EDF26F4D0010EF36E18
:104040000C0EF3CFDBFF060EDB50DF6EEBD0AAECDD
:1040500028F0E66EB5EC27F0E552DF2AE3D0EAEC73
:1040600027F0DF2ADFD0DF2A040EE66E010EE66EAF
:104070001AEC28F0E552E552080EE66EE66A1AECF4
:1040800028F0E552E552080EE66E23EC27F0E552E3
:10409000E66EB5EC27F0E552080EE66E23EC27F04D
:1040A000E552E66EB5EC27F0E552BCD0DF2A040EEF
:1040B000E66EE66A1AEC28F0E552E552080EE66E66
:1040C000E66A1AEC28F0E552E552080EE66EE66A5A
:1040D0001AEC28F0E552E552080EE66EE66A1AEC94
:1040E00028F0E552E5529ED0DF2A040EE66EE66A1D
:1040F0001AEC28F0E552E552080EE66EDF50DF2A92
:10410000E76EFD0EDBCFE9FFFE0EDBCFEAFFE750E7
:10411000E926000EEA22EF50E66E1AEC28F0E5528E
:10412000E552080EE66EDF50DF2AE76EFD0EDBCFAC
:10413000E9FFFE0EDBCFEAFFE750E926000EEA2298
:10414000EF50E66E1AEC28F0E552E5526BD0DF2A0C
:10415000040EE66EE66A1AEC28F0E552E552080E07
:10416000E66EDF50DF2AE76EFD0EDBCFE9FFFE0EC5
:10417000DBCFEAFFE750E926000EEA22EF50E66EB9
:104180001AEC28F0E552E552080EE66EDF50DF2A01
:10419000E76EFD0EDBCFE9FFFE0EDBCFEAFFE75057
:1041A000E926000EEA22EF50E66E1AEC28F0E552FE
:1041B000E552080EE66EDF50DF2AE76EFD0EDBCF1C
:1041C000E9FFFE0EDBCFEAFFE750E926000EEA2208
:1041D000EF50E66E1AEC28F0E552E55223D0DF2AC4
:1041E000080EE66E23EC27F0E552E66EB5EC27F0FC
:1041F000E55218D0DF2ADF50E76EFD0EDBCFE9FF76
:10420000FE0EDBCFEAFFE750E926000EEA22EF5070
:10421000E66E23EC27F0E552E66EB5EC27F0E552AA
:10422000DF2A00D00BEF1DF0B30E545E549E5446AF
:10423000F9505450F92680D287D241D3DED22FD301
:10424000E0D28BD265D250D227D2EBD1C0D198D157
:1042500090D17CD174D167D14ED143D13AD125D1FF
:1042600019D10ED105D1F0D0EBD0E6D0DDD0C6D03B
:10427000ADD084D070D001D036D0DF2A040EE66EE7
:10428000E66A1AEC28F0E552E552040EE66EDF50BD
:10429000E76EFD0EDBCFE9FFFE0EDBCFEAFFE75056
:1042A000E926000EEA22EF50E66E1AEC28F0E552FD
:1042B000E552080EE66EEAEC27F0E66E1AEC28F0FE
:1042C000E552E552080EE66EE66A1AEC28F0E55271
:1042D000E552040EE66E020EE66E1AEC28F0E55288
:1042E000E552DF2A9FD7DF2A040EE66EE66A1AEC53
:1042F00028F0E552E552040EE66EDF50E76EFD0E43
:10430000DBCFE9FFFE0EDBCFEAFFE750E926000E28
:10431000EA22EF50E66E1AEC28F0E552E552080E5C
:10432000E66EEAEC27F0E66E1AEC28F0E552E5526C
:10433000080EE66EEAEC27F0E66E1AEC28F0E5527D
:10434000E552040EE66E020EE66E1AEC28F0E55217
:10435000E552DF2A67D7DF2ADF50E76EFD0EDBCF9D
:10436000E9FFFE0EDBCFEAFFE750E926000EEA2266
:10437000EF50E66EBADAE552DF2A54D7DF2ADF5073
:10438000E76EFD0EDBCFE9FFFE0EDBCFEAFFE75065
:10439000E926000EEA22EF50E66EDF50E76EFD0ED2
:1043A000DBCFE9FFFE0EDBCFEAFFE750E926000E88
:1043B000EA22010EE926000EEA22EF50E66E52ECE8
:1043C00028F0E552E552020EDF262CD7DF2ADF5017
:1043D000E76EFD0EDBCFE9FFFE0EDBCFEAFFE75015
:1043E000E926000EEA22EF50E66EEAEC27F0E66ED0
:1043F00052EC28F0E552E552DF2A14D7DF2ADF50CD
:10440000E76EFD0EDBCFE9FFFE0EDBCFEAFFE750E4
:10441000E926000EEA22EFCFE2F2E2C2E6FFBDECAF
:1044200028F0E552DF2AFED6D1EC28F0E66EB5EC96
:1044300027F0E552DF2AF6D6E2EC28F0DF2AF2D6A2
:10444000F7EC28F0DF2AEED6DF2ADF50E76EFD0E0C
:10445000DBCFE9FFFE0EDBCFEAFFE750E926000ED7
:10446000EA22EF50E66E0CEC29F0E552DF2ADAD6AC
:10447000DF2AEAEC27F0E66E0CEC29F0E552D2D602
:10448000E66A75EC29F0E552E66EB5EC27F0E552E8
:10449000DF2AC8D60F0EE66E75EC29F0E552E66EFF
:1044A000B5EC27F0E552DF2ABDD6DF2ADF50E76EF4
:1044B000FD0EDBCFE9FFFE0EDBCFEAFFE750E9267A
:1044C000000EEA22EF50E66EDCEC29F0E552DF2A1E
:1044D000A9D6DF2AEAEC27F0E66EDCEC29F0E552FB
:1044E000A1D6E66ADCEC29F0E552E66EB5EC27F0E1
:1044F000E552DF2A97D6DF2ADF50E76EFD0EDBCFCD
:10450000E9FFFE0EDBCFEAFFE750E926000EEA22C4
:10451000EF50E66EDCEC29F0E552E66EB5EC27F0E4
:10452000E552DF2A7FD6DF2AEAEC27F0E66EDCECE4
:1045300029F0E552E66EB5EC27F0E55273D6DF2A96
:1045400083DBE66EB5EC27F0E5526CD6DF2ADF5050
:10455000DF2AE76EFD0EDBCFE9FFFE0EDBCFEAFFC1
:10456000E750E926000EEA22EF50E66EE5DAE55262
:1045700059D6DF2AEAEC27F0E66EDEDAE55252D6AB
:10458000DF2AD5DB020EF3CFDBFF030EF4CFDBFF18
:10459000FF0EE76E020EDBCF1FF0030EDBCF20F025
:1045A000E7501F16206A1F50E66EB5EC27F0E55263
:1045B000020EDBCF1FF0030EDBCF20F020C01FF078
:1045C000206A1F50E66EB5EC27F0E5522BD6DF2AA5
:1045D000E66ADF50E76EFD0EDBCFE9FFFE0EDBCFB4
:1045E000EAFFE750E926000EEA22010EE926000E56
:1045F000EA22EF50E66EDF50E76EFD0EDBCFE9FFFB
:10460000FE0EDBCFEAFFE750E926000EEA22EF506C
:10461000E66E4BEC2AF0E552E552E552020EDF263B
:1046200001D6DF2ADF50E76EFD0EDBCFE9FFFE0E7D
:10463000DBCFEAFFE750E926000EEA22020EE92668
:10464000000EEA22EF50E66EDF50E76EFD0EDBCF84
:10465000E9FFFE0EDBCFEAFFE750E926000EEA2273
:10466000010EE926000EEA22EF50E66EDF50E76EFB
:10467000FD0EDBCFE9FFFE0EDBCFEAFFE750E926B8
:10468000000EEA22EF50E66E4BEC2AF0E552E552BE
:10469000E552030EDF26C6D5DF2ADF50E76EFD0E9A
:1046A000DBCFE9FFFE0EDBCFEAFFE750E926000E85
:1046B000EA22010EE926000EEA22EF50E66EDF50F4
:1046C000E76EFD0EDBCFE9FFFE0EDBCFEAFFE75022
:1046D000E926000EEA22EF50E66EA0EC2BF0E55240
:1046E000E552020EDF269ED5DF2ADF50E76EFD0E73
:1046F000DBCFE9FFFE0EDBCFEAFFE750E926000E35
:10470000EA22EF50E66EE4EC2BF0E552DF2A8AD580
:10471000DF2ADF50E76EFD0EDBCFE9FFFE0EDBCFB9
:10472000EAFFE750E926000EEA22EF50E66E05ECBC
:104730002CF0E552DF2A76D5DF2AE66AE66A68ECD5
:104740002DF0E552E5526ED5DF2A010EE66EE66ADF
:1047500068EC2DF0E552E55265D5DF2A010EE66ED4
:10476000DF50E76EFD0EDBCFE9FFFE0EDBCFEAFF89
:10477000E750E926000EEA22EF50E66EDF50E76EC2
:10478000FD0EDBCFE9FFFE0EDBCFEAFFE750E926A7
:10479000000EEA22010EE926000EEA22EF50E66E34
:1047A000DF50E76EFD0EDBCFE9FFFE0EDBCFEAFF49
:1047B000E750E926000EEA22020EE926000EEA2260
:1047C000EF50E66EDF50E76EFD0EDBCFE9FFFE0E29
:1047D000DBCFEAFFE750E926000EEA22030EE926C6
:1047E000000EEA22EF50E66E35EC2CF01F6E050E3F
:1047F000E15E1F50040EDF2615D5DF2A17EC2DF0E1
:1048000011D5DF2ADF50E76EFD0EDBCFE9FFFE0E8C
:10481000DBCFEAFFE750E926000EEA22EF50E66E12
:10482000DF50E76EFD0EDBCFE9FFFE0EDBCFEAFFC8
:10483000E750E926000EEA22010EE926000EEA22E0
:10484000EF50E66EDF50E76EFD0EDBCFE9FFFE0EA8
:10485000DBCFEAFFE750E926000EEA22020EE92646
:10486000000EEA22EF50E66EDF50E76EFD0EDBCF62
:10487000E9FFFE0EDBCFEAFFE750E926000EEA2251
:10488000030EE926000EEA22EF50E66EC6EC2CF08D
:10489000E552E552E552E552040EDF26C3D4DF2A85
:1048A00099DBE66E97DBE66E95DBE66E93DBE66EF4
:1048B000C6EC2CF0E552E552E552E552B3D4DF2ABE
:1048C000010EE66E010EE66E68EC2DF0E552E55243
:1048D000A9D40BEF1DF00D0EE15C02E2E16AE55296
:1048E000E16EE552E7CFD9FF1200D9CFE6FFE1CF65
:1048F000D9FF0201E351E32BEA6A000FE96E010ED2
:10490000EA22FE0EDBCFEFFF0201E3511F6E206AA9
:10491000D890205004E6000E1F5C010E205802E3E0
:104920000201E36B0201E52B000EE623E552E7CF1F
:10493000D9FF1200D9CFE6FFE1CFD9FFF294FE0EE6
:10494000DB50FF0DF350D76ED66AD58EF2A4FED79A
:10495000D59EE552E7CFD9FF1200D9CFE6FFE1CFD0
:10496000D9FFF29ECD90A40ED76E730ED66EF29440
:10497000D58E8050080B04E1F250040B01E1F9D709
:10498000F2B45DD089949294600EE66E7FEC3EF0B6
:10499000E55289848050080B04E0F250040B01E1D9
:1049A000F9D7F2B44CD0FE0EDB50546EF2B646D0BE
:1049B00080A6FCD7899454BE898480B6FED7F2B60F
:1049C0003DD080A6FCD7899454BC898480B6FED79C
:1049D000F2B634D080A6FCD7899454BA898480B6C4
:1049E000FED7F2B62BD080A6FCD7899454B8898420
:1049F00080B6FED7F2B622D080A6FCD7899454B6F2
:104A0000898480B6FED7F2B619D080A6FCD78994E7
:104A100054B4898480B6FED7F2B610D080A6FCD7F5
:104A2000899454B2898480B6FED7F2B607D080A6A6
:104A3000FCD7899454B0898480B6FED70000F2A4D4
:104A400002D00001E885D59EF28ECD8000D0E552DF
:104A5000E7CFD9FF1200CD90F29EA40ED76E730E51
:104A6000D66EF294D58E8050080B04E1F250040B00
:104A700001E1F9D7F2B454D089949294600EE66EB5
:104A80007FEC3EF0E55289848050080B04E0F25040
:104A9000040B01E1F9D79284F2B442D0546AF2B621
:104AA0003ED080A6FCD780B6FED780B4548EF2B636
:104AB00036D080A6FCD780B6FED780B4548CF2B630
:104AC0002ED080A6FCD780B6FED780B4548AF2B62A
:104AD00026D080A6FCD780B6FED780B45488F2B624
:104AE0001ED080A6FCD780B6FED780B45486F2B61E
:104AF00016D080A6FCD780B6FED780B45484F2B618
:104B00000ED080A6FCD780B6FED780B45482F2B611
:104B100006D080A6FCD780B6FED780B454800000B3
:104B200089849294F2A402D00001E885D59EF28E89
:104B3000CD80545000D01200D9CFE6FFE1CFD9FF8D
:104B4000F29ECD90A40ED76E730ED66EF294D58ED3
:104B500092848050040B04E0F250040B01E1F9D779
:104B6000F2B45FD092968986600EE66E7FEC3EF0DE
:104B7000E55289968050040B04E1F250040B01E1E8
:104B8000F9D792869294F2B44CD0FE0EDB50546E5C
:104B9000F2B646D080A6FCD7899454BE898480B6EC
:104BA000FED7F2B63DD080A6FCD7899454BC898448
:104BB00080B6FED7F2B634D080A6FCD7899454BA1A
:104BC000898480B6FED7F2B62BD080A6FCD7899414
:104BD00054B8898480B6FED7F2B622D080A6FCD71E
:104BE000899454B6898480B6FED7F2B619D080A6CF
:104BF000FCD7899454B4898480B6FED7F2B610D01D
:104C000080A6FCD7899454B2898480B6FED7F2B6C8
:104C100007D080A6FCD7899454B0898480B6FED78B
:104C20000000F2A402D00001E885600EE66E7FEC81
:104C30003EF0E552D59EF28ECD809284929600D0C1
:104C4000E552E7CFD9FF1200CD90F29EA40ED76EA9
:104C5000730ED66EF294D58E92848050040B04E0CD
:104C6000F250040B01E1F9D7F2B455D0929689863F
:104C7000600EE66E7FEC3EF0E55289968050040BA4
:104C800004E1F250040B01E1F9D792849286F2B468
:104C900042D0546AF2B63ED080A6FCD780B6FED78A
:104CA00080B4548EF2B636D080A6FCD780B6FED73C
:104CB00080B4548CF2B62ED080A6FCD780B6FED736
:104CC00080B4548AF2B626D080A6FCD780B6FED730
:104CD00080B45488F2B61ED080A6FCD780B6FED72A
:104CE00080B45486F2B616D080A6FCD780B6FED724
:104CF00080B45484F2B60ED080A6FCD780B6FED71E
:104D000080B45482F2B606D080A6FCD780B6FED717
:104D100080B454800000F2A402D00001E885D59E42
:104D200092849296F28ECD80545000D01200D9CF4A
:104D3000E6FFE1CFD9FF030EE126DF6AF294800E91
:104D4000D76ED66AD58EF2AE02D0010EDF6EF29E1D
:104D500080A40AD0F2A407D0D59EDF0401E1F28E30
:104D6000F36AF46A47D0F4D780B40AD0F2A407D02B
:104D7000D59EDF0401E1F28EF36AF46A3BD0F4D7EA
:104D8000800ED76ED66AF29480A40AD0F2A407D01F
:104D9000D59EDF0401E1F28EF368F4682BD0F4D7DE
:104DA000D59EDF0401E1F28ED650E66ED950010F98
:104DB000E96EDACFEAFFE552E750EE6EED6A7F0E5C
:104DC000D7141F6E206A1FC020F01F6AD950010F30
:104DD000E96EDACFEAFF1F50EE262050ED22010ED9
:104DE000DBCF1FF0020EDBCF20F01FC0F3FF20C08F
:104DF000F4FF00D0030EE15C02E2E16AE552E16EED
:104E0000E552E7CFD9FF1200D9CFE6FFE1CFD9FFB6
:104E1000F294D768080EE66E8DEC3EF0E552FE0E79
:104E2000DB0402E10CD002D0FE0EDB06FE0EDB50EE
:104E3000FF0DF350D66ED58EF2A4FED7D59EE55267
:104E4000E7CFD9FF1200D9CFE6FFE1CFD9FFE65275
:104E50009284546AFE0EDB50556E020E0201E15D33
:104E60000CE280B45480898600000000000089961E
:104E700000005442552EF5D718D00201E105566EB8
:104E8000565080B454808986000000000000000065
:104E90000000E82EFBD78996565000000000000065
:104EA000E82EFBD75442552EEBD7FE0EDBCFE6FFA4
:104EB000080EE552D880E754070B04E05442549E94
:104EC000E806FCE10201E0A39294545000D0E552C0
:104ED000E552E7CFD9FF1200D9CFE6FFE1CFD9FFE6
:104EE000E6529284546AFE0EDB50556E020E0201A9
:104EF000E15D0CE2898600000000000080B454806F
:104F0000899600005442552EF5D718D00201E105CC
:104F1000566E898600000000565000000000000018
:104F2000E82EFBD780B454808996565000000000CC
:104F30000000E82EFBD75442552EEBD7FE0EDBCFF8
:104F4000E6FF080EE552D880E754070B04E0544210
:104F5000549EE806FCE10201E0A39294545000D074
:104F6000E552E552E7CFD9FF1200D9CFE6FFE1CFF6
:104F7000D9FF010E0001206AEB251F6EEC512022A3
:104F8000800ED8801F54000E205403E20001E887F1
:104F90001DD00001E951E92BEA6A600FE96E000EAD
:104FA000EA22FE0EDBCFEFFF0001E9511F6E206AFF
:104FB000D890205004E6800E1F5C000E205802E3BB
:104FC0000001E96B0001EB2B000EEC23E552E7CF6B
:104FD000D9FF1200D9CFE6FFE1CFD9FFE652020197
:104FE000E551E61104E10001E889000E1ED002013E
:104FF000E451E42BEA6A000FE96E010EEA22EFCFDA
:10500000DFFF0201E507000EE65B0201E4511F6EBF
:10501000206AD890205004E6000E1F5C010E205834
:1050200002E30201E46BDF5000D0E552E552E7CF26
:10503000D9FF1200D9CFE6FFE1CFD9FFE652FE0E2D
:10504000DB50546EFD0EDB50556E020E0201E15D29
:105050000CE254A0899454B0898400008986000031
:1050600089965442552EF5D718D00201E105566EA7
:1050700054A0899454B08984565000000000000068
:10508000E82EFBD789865650000000000000E82E6D
:10509000FBD789965442552EEBD7E552E552E7CF20
:1050A000D9FF1200D9CFE6FFE1CFD9FFE652FE0EBD
:1050B000DB50546EFD0EDB50556E020E0201E15DB9
:1050C0000CE254A0899454B08984898600008996A2
:1050D00000005442552EF5D718D00201E105566E56
:1050E00054A0899454B089845650898600000000E9
:1050F0000000E82EFBD78996565000000000000003
:10510000E82EFBD75442552EEBD7E552E552E7CFB8
:10511000D9FF1200D9CFE6FFE1CFD9FFFE0EDBA405
:1051200002D0898601D08996FE0EDBA602D0898442
:1051300001D08994FE0EDBA002D0928601D0929617
:10514000FE0EDBA202D0928401D09294E552E7CF0A
:10515000D9FF1200D9CFE6FFE1CFD9FFE652DF6ACF
:1051600080B4DF8280A602D0000EDB80DF5000D04A
:10517000E552E552E7CFD9FF1200D9CFE6FFE1CFE4
:10518000D9FFFE0EDBA202D0898801D08998FE0EDD
:10519000DBA002D0928801D09298E552E7CFD9FFE8
:1051A0001200D9CFE6FFE1CFD9FFE652DF6A80A82F
:1051B00002D0000EDB80DF5000D0E552E552E7CF91
:1051C000D9FF12008986060EE66E8DEC3EF0E552A0
:1051D00089989298060EE66E8DEC3EF0E55289961F
:1051E000060EE66E8DEC3EF0E5529288120089962E
:1051F000060EE66E8DEC3EF0E55289989298060E0A
:10520000E66E8DEC3EF0E5528986060EE66E8DEC7C
:105210003EF0E55292881200D9CFE6FFE1CFD9FFE8
:10522000FE0EDB50546E080E556E8998020E020178
:10523000E15D23E254AE929854BE928800D000D033
:1052400000D08986000000D000D000D000D0899620
:10525000000000D000D05446552EECD7928800D0E4
:1052600000D000D000D000D08986000000D000D04F
:1052700000D080B8558089962FD00201E151E824F2
:10528000FF0F566E54AE929854BE9288565000004E
:1052900000D000D000D0E82EFAD78986565000D032
:1052A00000D000D0E82EFDD7899600005446552E38
:1052B000E9D79288565000D000D0000000D000D02E
:1052C00000D0E82EFAD78986565000D000D0E82EBC
:1052D000FDD780B8558089965550000802E200013C
:1052E000E885E552E7CFD9FF1200D9CFE6FFE1CF3D
:1052F000D9FF546A080E556E010E566E9288020E42
:105300000201E15D14E2544600D000D000D000D08C
:105310000000898600D000D000D0000080B8548002
:10532000899600D000D000D0552EEDD725D00201AF
:10533000E151E824FF0F566E5446000000D056504D
:1053400000D000D000D00000E82EFAD78986565051
:1053500000D000D0E82EFDD780B85480899600D0C8
:10536000552EEAD70000565000D000D000D000D013
:1053700000D00000E82EFAD78998FE0EDB5001E13C
:105380009298565000D0F2D700D000D000D0000044
:10539000E82EFAD78986565000D000D0E82EFDD7E7
:1053A00000D0899600D0000000009288545000D0B0
:1053B000E552E7CFD9FF1200D9CFE6FFE1CFD9FF01
:1053C000E652FE0EDB50546E080E556E020E0201C0
:1053D000E15D0DE254AE899854BE898889865446B1
:1053E000549080B454808996552EF4D71BD0020176
:1053F000E105566E54AE899854BE89885650000017
:1054000000000000E82EFBD789865446549080B4F3
:1054100054805650000000000000E82EFBD789960B
:10542000552EE8D78998545000D0E552E552E7CF81
:10543000D9FF1200D9CFE6FFE1CFD9FFE652DF6AEC
:10544000FE0EDB50A96EFD0EDB50A86EA66AA68488
:10545000F2AE02D0010EDF6EF29E550EA76EAA0EBE
:10546000A76EA682DF0401E1F28EA6B2FED7E55256
:10547000E552E7CFD9FF1200D9CFE6FFE1CFD9FF40
:10548000FE0EDB50A96EA66AA680A85000D0E55299
:10549000E7CFD9FF1200D9CFE6FFE1CFD9FF040E45
:1054A000E126DF6A010EDB6A0201E151010808E230
:1054B000120E566E0F0EF36E030EF3CFDBFF07D006
:1054C000C60E566E030EF36E030EF3CFDBFF898814
:1054D0009298180EE66E8DEC3EF0E552020E1F6EAD
:1054E000FD0EDBCFE7FF1F50E726FD0EE7CFDBFF0A
:1054F000480ED56E550E546E8998D66AF294D58EA4
:10550000F2AE02D0010EDF6EF29EFD0EDB06020E41
:10551000DB6A020EDBCF1FF0080EE76E1F18E8AE45
:1055200002D0E73402D0E7501F5C21E28950EF0B34
:1055300054AE1009F2A4FED7896E5650D626929822
:10554000F294549E54468950556EFD0EDB5005E191
:10555000FC0EDB5002E1558801D05598F2A4FED72D
:1055600089785650D626F294020EDB2AD2D75550AF
:10557000F2A4FED7896E5650D626F294010EDB5067
:1055800007E0FD0EDB50000803E224DD546E03D07B
:10559000FE0EDB50546EF2A4FED789785650D62604
:1055A000F294F2A4FED792885650D626F294030EB7
:1055B000DBCFE6FF8DEC3EF0E552010EDB5009E05B
:1055C0008050100B06E00001E885FD0EDB6AFC0E42
:1055D000DB6AF2A4FED700005650D626F294030EE2
:1055E000DBCFE6FF8DEC3EF0E552010EDB5009E02B
:1055F0008050100B06E10001E885FD0EDB6AFC0E11
:10560000DB6ADE52010EDD6EFD0EDB50000801E2AA
:105610007CD7FC0EDBCFF3FFDB06F350000801E381
:105620007FD0546A020EDB6A020EDBCF1FF0080E39
:10563000E76E1F18E8AE02D0E73402D0E7501F5CD7
:1056400030E2F2A4FED70000D66AF2948950556E7B
:10565000FC0EDB5002E1558801D05598030EDB04A7
:10566000E66E8DEC3EF0E55280B807D0F2B402D081
:1056700080A8FCD75650D66E06D0F2B402D080B8BF
:10568000FCD75650D66EF294030EDBCFE6FF8DECBE
:105690003EF0E552549E544680B8542A020EDB2A4E
:1056A000C3D75550F2A4FED7896E5650D62692988D
:1056B000F2945450E66E59DCE552F2A4FED7897894
:1056C0005650D626F294F2A4FED792885650D6268B
:1056D000F294030EDBCFE6FF8DEC3EF0E552010EB7
:1056E000DB5007E08050100B04E00001E885FC0E61
:1056F000DB6AF2A4FED700005650D626F294030EC1
:10570000DBCFE6FF8DEC3EF0E552010EDB5007E00B
:105710008050100B04E10001E885FC0EDB6A79D7AC
:10572000DF0401E1F28E070ED56E9288040EE15C73
:1057300002E2E16AE552E16EE552E7CFD9FF1200DD
:10574000D9CFE6FFE1CFD9FFE652FE0EDB5001E1F3
:105750000FD0546AFD0EDB50556EDF6AFE0EDB5033
:10576000DF5C06E224EC38F055905542DF2AF6D78C
:10577000E552E552E7CFD9FF1200D9CFE6FFE1CFDE
:10578000D9FFE652FE0EDB5002E1000E18D0FD0EEE
:10579000DB50546EFC0EDB50556E566ADF6AFE0E0F
:1057A000DB50DF5C0AE25690564224EC38F054900D
:1057B000544255905542DF2AF2D7565000D0E55258
:1057C000E552E7CFD9FF1200D9CFE6FFE1CFD9FFED
:1057D000030EE66E040EE66EB3DFE552E552100EE0
:1057E000E66EFE0EDBCFE6FF050EE66EC6DFE55287
:1057F000E552E552010EE66E020EE66EA1DFE552BD
:10580000E552E552E7CFD9FF1200D9CFE6FFE1CF4D
:10581000D9FFE652DF6A010EE66E030EE66E90DFF8
:10582000E552E55256AE02D0010EDF6E800EE66EF6
:10583000FE0EDBCFE6FF080EE66E9FDFE552E55277
:10584000E5525650E824DF12DFCFE6FFB5EC27F033
:10585000E552010EE66E020EE66E72DFE552E5528B
:10586000E552E552E7CFD9FF1200D9CFE6FFE1CFED
:10587000D9FF020EE126DF6A010EDB6A010EE66E39
:10588000030EE66E5DDFE552E55256AE02D0010E24
:10589000DF6EE66AFB0EDBCFE6FF080EE66E6DDF1D
:1058A000E552E552E5525650E824DF12FA0EDB507D
:1058B00005E0DFCFE6FFB5EC27F0E552DF6A56AE34
:1058C00002D0010EDF6EE66AFC0EDBCFE6FF080EAB
:1058D000E66E53DFE552E552E5525650E824DF12FA
:1058E000FA0EDB5005E0DFCFE6FFB5EC27F0E5521E
:1058F000DF6A56AE02D0010EDF6EE66AFD0EDBCF28
:10590000E6FF080EE66E39DFE552E552E5525650E5
:10591000E824DF12FA0EDB5005E0DFCFE6FFB5EC3E
:1059200027F0E552010EDFCFDBFFDF6A56AE02D073
:10593000010EDF6E800EE66EFE0EDBCFE6FF080E78
:10594000E66E1BDFE552E552E5525650E824DF12C1
:10595000FA0EDB5005E0DFCFE6FFB5EC27F0E552AD
:10596000010EE66E020EE66EEBDEE552E552010E2A
:10597000DB5000D01F6E020EE15C02E2E16AE552EC
:10598000E16E1F50E552E7CFD9FF1200D9CFE6FFF5
:10599000E1CFD9FF010EE66E030EE66ED1DEE552D1
:1059A000E55256BE0AD01F0EE66E050EE66EC8DE44
:1059B000E552E5520001E88536D0E66A010EE66E52
:1059C000BFDEE552E552E66AFB0EDBCFE6FF080ECE
:1059D000E66ED3DEE552E552E552E66AFC0EDBCF19
:1059E000E6FF080EE66EC9DEE552E552E552E66ACC
:1059F000FD0EDBCFE6FF080EE66EBFDEE552E55298
:105A0000E552800EE66EFE0EDBCFE6FF080EE66E78
:105A1000B4DEE552E552E552010EE66E020EE66E88
:105A20008FDEE552E552E552E7CFD9FF1200D9CF1C
:105A3000E6FFE1CFD9FFE652D76AD66AF294D58E57
:105A40000A0EE66EC1DEE552E66AE66AD00EE66E42
:105A5000040EE66EE66A09DF1F6E050EE15E1F505A
:105A6000DF6E040EDF1403E1F250040BEDE0F2A44C
:105A700004D00001E885D59E26D0090EE66EA4DE8E
:105A8000E552E66AEAEC27F0E66EEAEC27F0E66E0D
:105A9000EAEC27F0E66EEAEC27F0E66EE6DE1F6E33
:105AA000050EE15E1F500A0EE66E8EDEE552E66AD6
:105AB000E66AC00EE66EE66AE66AD7DE1F6E050E7F
:105AC000E15E1F50D59EE552E552E7CFD9FF1200A7
:105AD000D9CFE6FFE1CFD9FFE652D76AD66AF29472
:105AE000D58E0A0EE66E70DEE552E66AE66AD00EE4
:105AF000E66E040EE66EE66AB8DE1F6E050EE15E27
:105B00001F50DF6E040EDF1403E1F250040BEDE0D2
:105B1000F2A404D00001E885D59E23D0090EE66EDC
:105B200053DEE552FE0EDBCFE6FFE66AE66AE66A82
:105B3000E66A9BDE1F6E050EE15E1F50FD0EDB5018
:105B40000FE00A0EE66E40DEE552E66AE66AC00E37
:105B5000E66EE66AE66A89DE1F6E050EE15E1F509C
:105B6000D59EE552E552E7CFD9FF1200D9CFE6FF27
:105B7000E1CFD9FF020EE126F29E85EC3BF0928444
:105B8000928692888FEC19F08B80E950DF6E010EBF
:105B9000EACFDBFF5F5002E05F6A02D058505F6ED1
:105BA0003AEC38F05E50000803E2C2EC38F007D05F
:105BB0005F5003E087EC38F002D04CEC38F0DF5057
:105BC000E96E010EDB50EA6E8B9070EC3BF0F28ECA
:105BD00054C040F255C041F2C4EC10F0020EE15C3A
:105BE00002E2E16AE552E16EE552E7CFD9FF120029
:105BF0000100327D0000F400000002000000D9CF57
:105C0000E6FFE1CFD9FFE6520401B06B0401B16BAE
:105C1000B26B196AC56AC76A280EC66E1F0EC86EB7
:105C2000C584C5B4FED7E552E552E7CFD9FF1200CF
:105C3000D9CFE6FFE1CFD9FFE6528B9C67D80401AC
:105C4000B06B9E960401B051B02BEA6AC00FE96EAA
:105C5000040EEA22EF50C96E9EA6FED7C5BCC584CD
:105C6000400E0401B05DEDE3C584C5B4FED7060E59
:105C7000E66E46EC3EF0E5520401B06B0401B12B38
:105C8000000EB2238B8CE552E552E7CFD9FF12000C
:105C9000D9CFE6FFE1CFD9FFE65238D80109DF6E50
:105CA000C582C5B2FED79E96DF50C96E9EA6FED7AE
:105CB000C5BCC5840401B06B9E96C5869EA6FED762
:105CC0000401B051B02BEA6AC00FE96E040EEA225B
:105CD000C9CFEFFF400E0401B05D02E1C58A01D0DB
:105CE000C59AC588C5B8FED7400E0401B05DE4E38F
:105CF000C584C5B4FED70401B06B0401B12B000EFE
:105D0000B223E552E552E7CFD9FF1200D9CFE6FF23
:105D1000E1CFD9FF020EE126DE52A00EDD6E1D504E
:105D200007E10401B251040B02E0010EDB820CD04A
:105D30000401B251080B02E0010EDB820401B251F2
:105D4000040B02E0010EDB86C580C5B0FED79E962F
:105D5000010EDB50C96EB1C41FF0B2C420F0D89060
:105D600020321F32D89020321F321F50DF6E9EA685
:105D7000FED7C5BCC5849E96DF50C96EB1C41FF066
:105D8000B2C420F0060ED8901F362036E804FBE19E
:105D90001F50DF6E9EA6FED7C5BCC5849E96DF5001
:105DA000C96E9EA6FED7C5BCC584010EDB5000D0CF
:105DB0001F6E020EE15C02E2E16AE552E16E1F50E5
:105DC000E552E7CFD9FF1200D9CFE6FFE1CFD9FFE7
:105DD0000401B051B02BEA6AC00FE96E040EEA224A
:105DE000FE0EDBCFEFFF0401B0513F0801E220DFE0
:105DF000E552E7CFD9FF12000401B0513F0803E29A
:105E000047DF0401B06B0401B051B02BEA6AC00F48
:105E1000E96E040EEA22EF5000D01200D9CFE6FF5F
:105E2000E1CFD9FF1E6AFE0EDBCFE6FF0BD8E552AD
:105E3000000904E0010E1E6EE2DE8B80E552E7CF22
:105E4000D9FF1200D9CFE6FFE1CFD9FFFE0EDBCF9D
:105E5000F3FFDB2AF350EA6A000FE96E020EEA2232
:105E6000EF50500802E0000E20D0FE0EDBCFF3FF13
:105E7000DB2AF350EA6A000FE96E020EEA22EF50C5
:105E80004B0802E0000E11D0FE0EDBCFF3FFDB2A41
:105E9000F350EA6A000FE96E020EEA22EF50320870
:105EA00002E0000E02D0010E00D0E552E7CFD9FF8C
:105EB0001200AD0EE66E88DFE5520401B051000815
:105EC000F8E31E6A8B901200D9CFE6FFE1CFD9FF2D
:105ED000020EE126DF6A010EDB6ADF50EA6A000F7C
:105EE000E96E020EEA22EF50840A01E14ED1210A46
:105EF00001E129D1270A01E126D1010A01E123D1DB
:105F0000040A01E120D1070A01E11DD1010A01E1E2
:105F10001AD1230A01E115D1010A01E112D10D0ABA
:105F200001E10FD1010A01E10CD1080A01E1FDD024
:105F30000E0A01E1FAD0030A01E1F7D0010A01E1FA
:105F4000F4D0070A01E1F1D0290A01E1EED0030AF9
:105F500001E1EBD02E0A01E1BCD00E0A01E18DD0A7
:105F6000020A54E0140A4FE0100A20E0010A1EE081
:105F7000130A19E0030A0CE0070A06E01B0A01E015
:105F80003CD1400EDF6E3AD1400EDF6E92DF36D14B
:105F9000020EDF26DF50EA6A000FE96E020EEA22E7
:105FA000EF28DF262BD1030EDF2628D1DF50DF2A92
:105FB000EA6A000FE96E020EEA22EF50E66E04DF95
:105FC000E552DF50DF2AEA6A000FE96E020EEA228C
:105FD000EF50E66EF9DEE552DF50DF2AEA6A000F85
:105FE000E96E020EEA22EF50E66EEEDEE552DF5079
:105FF000DF2AEA6A000FE96E020EEA22EF50E66E2F
:10600000E3DEE552FBD0050EDF26F8D0DF50DF2AB5
:10601000EA6A000FE96E020EEA22EF50E66ED4DE65
:10602000E552DF50DF2AEA6A000FE96E020EEA222B
:10603000EF50E66EC9DEE552DF50DF2AEA6A000F54
:10604000E96E020EEA22010EEFCFDBFF010EDBCF7D
:10605000E6FFBADEE552DF50DF2AEA6A000FE96E9A
:10606000020EEA22EF50E66EAFDEE552010EDB06CD
:10607000010EDB500008EFE3C1D0DF50DF2AEA6AEF
:10608000000FE96E020EEA22EF50E66E9DDEE55249
:10609000DF50DF2AEA6A000FE96E020EEA22010EE3
:1060A000EFCFDBFF010EDBCFE6FF8EDEE552DF50E8
:1060B000DF2AEA6A000FE96E020EEA22EF50E66E6E
:1060C00083DEE552010EDB06010EDB500008EFE334
:1060D00095D0DF50DF2AEA6A000FE96E020EEA224D
:1060E000EF50E66E71DEE552DF50DF2AEA6A000FFC
:1060F000E96E020EEA22010EEFCFDBFF010EDBCFCD
:10610000E6FF62DEE552DF50DF2AEA6A000FE96E41
:10611000020EEA22EF50E66E57DEE552010EDB0674
:10612000010EDB500008EFE369D0DF50DF2AEA6A96
:10613000000FE96E020EEA22EF50E66E45DEE552F0
:106140005DD0DF2A5BD0DF50DF2AEA6A000FE96EFC
:10615000020EEA22EF50E66E37DEE552DF50DF2A0C
:10616000EA6A000FE96E020EEA22EF50E66E2CDEBC
:10617000E552DF50DF2AEA6A000FE96E020EEA22DA
:10618000EF50E66E21DEE55239D0DF50DF2AEA6AB1
:10619000000FE96E020EEA22EF50E66E15DEE552C0
:1061A000DF50DF2AEA6A000FE96E020EEA22EF50A2
:1061B000E66E0ADEE552DF50DF2AEA6A000FE96E7A
:1061C000020EEA22EF50E66EFFDDE552DF50DF2AD5
:1061D000EA6A000FE96E020EEA22EF50E66EF4DD85
:1061E000E552DF50DF2AEA6A000FE96E020EEA226A
:1061F000EF50E66EE9DDE55201D0DF2A400EDF5CAC
:1062000001E26BD6020EE15C02E2E16AE552E16E68
:10621000E552E7CFD9FF1200D9CFE6FFE1CFD9FF92
:10622000020EE126ECDC0401400EB06FE5DDDF6E0E
:10623000DF50AB0A01E1D1D0070A01E1CCD0060A58
:1062400001E1C9D0030A01E1C3D0010A01E1BDD0D7
:106250000F0A01E1B7D0010A01E19CD0030A01E174
:106260008AD0010A01E185D0050A6BE0010A53E0FA
:10627000FA0A50E0DC0A4CE0030A48E0010A36E082
:10628000070A2BE0040A25E0050A21E0030A11E0D1
:10629000010A01E0A5D0B0DDE76E010EE7CFDBFF1C
:1062A000ABDDE66E010EDBCFE6FF60D9E552E552CD
:1062B00099D0A2DDE76E010EE7CFDBFF9DDDE66E34
:1062C000010EDBCFE6FFB0D9E552E5528BD0166A5E
:1062D000176A92DD186E90DD85D0161C166E171C9D
:1062E000176E8ADD161A88DD171A7CD085DD586E88
:1062F00083DD596E81DD5A6E7FDD5B6E81D80009CA
:1063000004E1010E196EAD0EDF6E6CD003D96AD0B8
:1063100021D968D067D070DDE76E010EE7CFDBFFD3
:10632000010EDBCFE6FF68DDE66EB7EC15F0E55257
:10633000E55262DDE66EDCEC16F0E5520201FA6F22
:1063400051D05ADD0001E06F57DDE66EDCEC16F04F
:10635000E552010F0001E16F020E0001E15D000155
:10636000E26F4ADDE66EDCEC16F0E5520201FB6FEF
:1063700039D0B6D937D040DDE76E010EE7CFDBFF6D
:106380003BDDE66E010EDBCFE6FF3EEC19F0E55299
:10639000E55228D031DDE76E010EE7CFDBFF010EBD
:1063A000DBCFE6FFC8EC35F0E552010EDBCFE6FFB0
:1063B000000EE66E020EE66EF2EC1CF0E552E552BF
:1063C000E55210D071EC17F00DD0E5EC35F00AD0A5
:1063D00069EC17F007D04ED805D08FEC19F002D039
:1063E000AD0EDF6EAD0EDF5C01E020D7020EE15C8A
:1063F00002E2E16AE552E16EE552E7CFD9FF120011
:1064000069EC17F0010EE66EE66A3EEC19F0E55213
:10641000E552010EE66E020EE66E3EEC19F0E55214
:10642000E552010EE66E010EE66E3EEC19F0E55205
:10643000E5520001EA51EA2BEA6A600FE96E000EAC
:10644000EA22EF5058160001EA51EA2BEA6A600F7F
:10645000E96E000EEA22EF50591669EC17F05A5017
:10646000585C05E15B50595C02E1010E02D0000E60
:1064700000D01200D9CFE6FFE1CFD9FF040EE1260C
:10648000160EDE6E000EDD6E020EDB6A020EDBCF34
:106490001FF00001EB511F5C000EEC552FE20001D4
:1064A000EA51EA2BEA6A600FE96E000EEA22030E57
:1064B000EFCFDBFF185013E0020EDBA00ED018A0C8
:1064C00003D0030EDB9E08D0030EDB92DB94DB9639
:1064D000DB98DB9ADB9CDB9E02D0030EDB90030E85
:1064E000DB501F6E206ADECFE9FFDDCFEAFF1F50D1
:1064F000EE262050ED22020EDB2AC8D769EC17F0F9
:10650000040EE15C02E2E16AE552E16EE552E7CF9A
:10651000D9FF120069EC17F0010EE66EE66A3EEC58
:1065200019F0E552E552010EE66E0D0EE66E3EECF8
:1065300019F0E552E552010EE66E010EE66E3EECF4
:1065400019F0E552E552600E000161151A6E69EC12
:1065500017F012001A5001010113010EE66E0F0E22
:10656000E66E3EEC19F0E552E5521200D9CFE6FF97
:10657000E1CFD9FF71EC17F069EC17F00201E3519C
:10658000E32BEA6A000FE96E010EEA22FE0EDBCF72
:10659000EFFF0201E351E32BEA6A000FE96E010EFF
:1065A000EA22FD0EDBCFEFFF0201E351E32BEA6AA3
:1065B000000FE96E010EEA22EF6A030E0201E527E1
:1065C000000E0201E623010EE66EE66A3EEC19F0CB
:1065D000E552E552010EE66E140EE66E3EEC19F041
:1065E000E552E552010EE66E010EE66E3EEC19F044
:1065F000E552E5520001EA51EA2BEA6A600FE96EC2
:10660000000EEA22EF50146E0001EA51EA2BEA6A0A
:10661000600FE96E000EEA22EF50156E69EC17F07C
:10662000E552E7CFD9FF1200D9CFE6FFE1CFD9FF7E
:1066300071EC17F069EC17F00201E351E32BEA6A01
:10664000000FE96E010EEA22FE0EDBCFEFFF020122
:10665000E351E32BEA6A000FE96E010EEA22FD0E18
:10666000DBCFEFFF0201E351E32BEA6A000FE96E93
:10667000010EEA22EF6A0201E351E32BEA6A000FFE
:10668000E96E010EEA2214C0EFFF0201E351E32B91
:10669000EA6A000FE96E010EEA2215C0EFFF050E4F
:1066A0000201E527000E0201E623010EE66EE66A0E
:1066B0003EEC19F0E552E552010EE66E150EE66E5F
:1066C0003EEC19F0E552E552010EE66E010EE66E63
:1066D0003EEC19F0E552E552E552E7CFD9FF120042
:1066E000D9CFE6FFE1CFD9FF0A0EE126FCEC2EF070
:1066F000E66ED950060FE96EDACFEAFFE552E750B1
:10670000EE6EED6AFCEC2EF0E66ED950040FE96EE9
:10671000DACFEAFFE552E750EE6EED6A040EDBCF0A
:1067200008F0050EDBCF09F0080E08C0DBFF090EEC
:1067300009C0DBFF040EDBCF1FF0050EDBCF20F01E
:10674000203404E21F503D08000E205403E20001F3
:10675000E88D14D2020EDB6A030EDB6ADE6ADD6AA4
:10676000DECF1FF0DDCF20F0D890205004E6200EC1
:106770001F5C000E205823E2DECFE9FFDDCFEAFFE9
:10678000030EEA02F3CFEAFF030EE902F3CFE9FFBB
:10679000F450EA26800EE926020EEA22EF501F6E20
:1067A000206AD950020FE96EDACFEAFF1F50EE26B9
:1067B0002050ED22DF2A010E01E3DB2AD1D7060E9D
:1067C000DBCFE9FF070EDBCFEAFF030EEA02F3CFD0
:1067D000EAFF030EE902F3CFE9FFF450EA26800E48
:1067E000E926020EEA22EF501F6E206AD950020FEE
:1067F000E96EDACFEAFF1F50EE5E2050ED5A040E2C
:10680000DBCF1FF0050EDBCF20F0020EDBCF21F037
:10681000030EDBCF22F0000ED8802156030E225645
:1068200022502018E8AE02D0203404D01F50215C42
:106830002050225803E20001E88DA0D1060EDBCFE4
:106840001FF0070EDBCF20F0203404E21F501F089A
:10685000000E205403E20001E88D90D1060EDBCF3C
:10686000E9FF070EDBCFEAFF030EEA02F3CFEAFFF0
:10687000030EE902F3CFE9FFF450EA26800EE92681
:10688000020EEA22EF5001E106D1060EDBCFE9FF4E
:10689000070EDBCFEAFF030EEA02F3CFEAFF030E97
:1068A000E902F3CFE9FFF450EA26800EE926020E52
:1068B000EA22EF501F6E206A000ED8801F56030E8A
:1068C00020561F06000E205A040E1FC0DBFF050EC7
:1068D00020C0DBFF060EDBCFE9FF070EDBCFEAFFB0
:1068E000030EEA02F3CFEAFF030EE902F3CFE9FF5A
:1068F000F450EA26800EE926020EEA22EE52EECF8E
:10690000DEFFEDCFDDFFDECF1FF0DDCF20F0040E88
:10691000DBCF21F0050EDBCF22F020502218E8AEAD
:1069200002D0223404D021501F5C2250205835E27E
:10693000060EDBCFE9FF070EDBCFEAFF030EEA020C
:10694000F3CFEAFF030EE902F3CFE9FFF450EA26A2
:10695000800EE926020EEA22EF500001206AF4259B
:106960001F6EF5512022DE501F24E96EDD502020DD
:10697000EA6EEF50E66EDE500001F4250F01E96E7D
:10698000DD500001F5210F01EA6EE552E750EF6E90
:10699000DF2A010E01E3DB2AB6D7DE6ADD6ADECF2D
:1069A0001FF0DDCF20F0D890205004E6200E1F5CB1
:1069B000000E205870E2DECFE9FFDDCFEAFF030EC4
:1069C000EA02F3CFEAFF030EE902F3CFE9FFF45046
:1069D000EA26800EE926020EEA22EECF1FF0EECF65
:1069E00020F0EFCF21F0060EDBCFE9FF070EDBCF63
:1069F000EAFF030EEA02F3CFEAFF030EE902F3CF48
:106A0000E9FFF450EA26800EE926020EEA22EE5251
:106A1000EECF22F0EFCF23F0000123502118E8AE93
:106A200002D0213404D02050225C215023582EE281
:106A3000060EDBCFE9FF070EDBCFEAFF030EEA020B
:106A4000F3CFEAFF030EE902F3CFE9FFF450EA26A1
:106A5000800EE926020EEA22EF501F6E206ADECF7A
:106A6000E9FFDDCFEAFF030EEA02F3CFEAFF030EF0
:106A7000E902F3CFE9FFF450EA26800EE926020E80
:106A8000EA22EE521F50EE5E2050ED5ADF2A010E30
:106A900001E3DB2A84D7060EDBCFE9FF070EDBCF4D
:106AA000EAFF030EEA02F3CFEAFF030EE902F3CF97
:106AB000E9FFF450EA26800EE926020EEA22080ECB
:106AC000DBCFEFFF060EDBCFE9FF070EDBCFEAFFE0
:106AD000030EEA02F3CFEAFF030EE902F3CFE9FF68
:106AE000F450EA26800EE926020EEA22EE52020E49
:106AF000DBCFEEFF030EDBCFEDFFDE6ADD6ADECF1C
:106B00001FF0DDCF20F0060EDBCFE9FF070EDBCF55
:106B1000EAFF030EEA02F3CFEAFF030EE902F3CF26
:106B2000E9FFF450EA26800EE926020EEA22EF5031
:106B3000000120AE02D0D89003D01F5C000E205878
:106B40001DE2FCEC2EF0E66E020EDB500001F42597
:106B500000011F6E030EDB500001F5210001206EC5
:106B6000DE501F24E96EDD502020EA6EE552E7502A
