:020000040000FA
:0600000097EF29F0120049
:0620000097EF29F0120029
:06200800D5EF27F01200E5
:06201800D5EF27F01200D5
:02202A000000B4
:04202C00D9CFE6FF23
:10203000E1CFD9FFE652928092820D0EC16E030E5F
:10204000C06E9284809489949286809689969288B4
:102050008998899A929A8A9693968A889398938A6D
:10206000818AF19E8A9493948B9094908B9294920F
:102070008B949494949C8B8CDF6A400EDF5C10E20E
:10208000DF50EA6A010FE96E010EEA22EF6ADF50C3
:10209000EA6A410FE96E010EEA22EF6ADF2AEDD704
:1020A0000101816B0101020E826F0101030E836F3A
:1020B0000101040E846F0101050E856F0101060EFA
:1020C000866F0101080E876F0101180E886F0101EC
:1020D0000A0E896F0101090E8A6F01010B0E8B6FC9
:1020E00001018C6901018D6901018E6901018F690E
:1020F00001019069080ED56E040ECA6E4F0ECB6EAC
:102100000C0EBD6E1D0EBE6E0101400EE16F010191
:102110003E0EE26F01013C0EE36F01017E0E986FEF
:1021200001012D0E996F0101936B070EB46EB56A14
:10213000F28CF28EAEEC27F0E552E552E7CFD9FFF4
:102140001200D9CFE6FFE1CFD9FF080EE126010149
:102150009A6B400EE66E010EE66E010EE66EA2EC84
:1021600026F0E552E552E552000802E387EF1BF046
:10217000400E01019A5D02E387EF1BF001019A51C5
:10218000EA6A010FE96E010EEA22EF50420A02E10B
:1021900063EF1BF00F0A02E12EEF1BF03E0A02E193
:1021A000C8EF1AF0140A02E194EF1AF0130A02E1E0
:1021B00069EF1AF0E00A02E158EF1AF0070A02E1AB
:1021C00034EF1AF0010A02E12DEF1AF0030A02E1DE
:1021D00028EF1AF0010A02E120EF1AF0170A02E1D3
:1021E00048EF19F0030A02E174EF18F0060A02E161
:1021F000B3EF17F0070A02E11DEF17F0030A02E13F
:10220000BBEF16F0070A02E1E5EF15F0010A02E163
:1022100042EF15F0D30A01E1C0D3670A01E1EAD227
:102220007A0A01E185D2200A01E116D20A0A01E107
:10223000FCD1200A01E1E2D1330A01E1AED1200A4A
:1022400001E17AD1320A01E171D1200A01E168D1BC
:102250000C0A01E136D10A0A01E12DD1110A01E18E
:1022600024D1200A01E11BD1020A01E112D13F0A67
:1022700001E109D11F0A01E100D1260A01E1E3D001
:10228000200A01E193D0350A6EE0220A02E083EFD2
:102290001BF001019A2B01019A51EA6A010FE96EC4
:1022A000010EEA22EF50800B5AE0C050DE6EDD6A6C
:1022B0000A0EC16E01019A51EA6A010FE96E010E20
:1022C000EA22EF507F0B01019D6F01019A2B010162
:1022D0009A51EA6A010FE96E010EEA22EF50030BF0
:1022E000040DF328C26E860EC06E01019B6B0101C6
:1022F0009C6B01019D5101019B5D20E20A0EE66E7F
:10230000A3EC29F0E552C282C2B2FED79E9C010125
:102310009C519C2BEA6A410FE96E010EEA22C3CF61
:10232000EFFF01019C519C2BEA6A410FE96E010EFF
:10233000EA22C4CFEFFF01019B2BDBD704010CBFC6
:102340000BD0400EE66E410EE66E010EE66E66ECB8
:1023500026F0E552E552E5520D0EC16EC09E010118
:102360009A2B85EF1BF002C181F103C182F104C1F8
:1023700083F105C184F106C185F107C186F108C169
:1023800087F109C188F10AC189F10BC18AF10CC139
:102390008BF10DC18CF10EC18DF10FC18EF110C109
:1023A0008FF10101400E9A6F85EF1BF001019A2B0E
:1023B00001019A51EA6A010FE96E010EEA22EF501B
:1023C000040B1FE08DEC1BF0050EC26E780EE66E5E
:1023D0004CEC29F0E552C282C2B2FED79E9CC3CF1C
:1023E00041F1C4CF42F104010CBF0BD0400EE66EA8
:1023F000410EE66E010EE66E66EC26F0E552E55201
:10240000E55201019A51EA6A010FE96E010EEA22D2
:10241000EF50010B03E090EC1BF002D08DEC1BF0B1
:1024200001019A51EA6A010FE96E010EEA22EF50AA
:10243000020B03E083EC22F002D087EC22F00101D2
:102440009A2B85EF1BF00101010E416F0101130E64
:10245000426F0101436B04010CBF0BD0400EE66ECE
:10246000410EE66E010EE66E66EC26F0E552E55290
:10247000E55201019A2B85EF1BF093EC1BF0010153
:102480009A2B85EF1BF0AFEC1BF001019A2B85EF27
:102490001BF0CBEC1BF001019A2B85EF1BF07BECC2
:1024A0001DF001019A2B85EF1BF0B4EC1DF001012A
:1024B0009A2B85EF1BF00EEC1EF001019A2B85EF95
:1024C0001BF001019A29EA6A010FE96E010EEA2266
:1024D000EF50DE6EDD6A020E01019A25EA6A010FF5
:1024E000E96E010EEA22EFCF0BF00C6A0BBE0C680E
:1024F0000BC00CF00B6AD9CFE9FFDACFEAFF0B5023
:10250000EE260C50ED22DECFE6FFDDCFE6FF55ECE8
:102510001DF0E552E552030E01019A2785EF1BF0ED
:1025200019EC1EF001019A2B85EF1BF023EC1EF035
:1025300001019A2B85EF1BF001019A29EA6A010F2C
:10254000E96E010EEA22EF50DE6EDD6A020E010135
:102550009A25EA6A010FE96E010EEA22EFCF0DF02B
:102560000E6A0DBE0E680DC00EF00D6ADE500D2411
:102570000B6EDD500E200C6E0BC0DEFF0CC0DDFFBD
:10258000DECFE6FFDDCFE6FF8AEC1EF0E552E55236
:10259000030E01019A2785EF1BF001019A29EA6ACF
:1025A000010FE96E010EEA22EF50DE6EDD6A020EC7
:1025B00001019A25EA6A010FE96E010EEA22EFCFC6
:1025C0000DF00E6A0DBE0E680DC00EF00D6ADE50E5
:1025D0000D240B6EDD500E200C6E0BC0DEFF0CC008
:1025E000DDFFDECFE6FFDDCFE6FFA4EC1EF0E55217
:1025F000E552030E01019A2785EF1BF001019A298C
:10260000EA6A010FE96E010EEA22EF50DE6EDD6A22
:10261000DECFE6FFDDCFE6FF4BEC1EF0E552E552E4
:10262000020E01019A2785EF1BF001019A29EA6A3F
:10263000010FE96E010EEA22EF50DE6EDD6ADECF99
:10264000E6FFDDCFE6FF6AEC1EF0E552E552020E32
:1026500001019A2785EF1BF001019A2B01019A5184
:102660009A2BEA6A010FE96E010EEA22EFCF9DF183
:1026700001019B6B01019D5101019B5D3CE2010148
:102680009B5105E086C1E6FFDFEC1BF0E55201013E
:102690009A29EA6A010FE96E010EEA22EF503F0B18
:1026A0000B6E0C6A0BBE0C680BC0DEFF0CC0DDFFAE
:1026B000D9CFE9FFDACFEAFFEE50ED6EEF6A010104
:1026C0009A51EA6A010FE96E010EEA22EF50DF1219
:1026D00082C1E6FFDFEC1BF0E552DECFE6FFDDCF87
:1026E000E6FF1EEC1CF0E552E552020E01019A27AE
:1026F00001019B2BBFD788C1E6FFDFEC1BF0E55241
:10270000030EE66E4CEC29F0E55289C1E6FFDFECE2
:102710001BF0E5520C0EE66E89EC29F0E55286C1FD
:10272000E6FFDFEC1BF0E5520BEC27F085EF1BF02A
:1027300001019A2B01019A519A2BEA6A010FE96E65
:10274000010EEA22EFCF9DF101019B6B01019D512A
:1027500001019B5D3CE201019B5105E086C1E6FF62
:10276000DFEC1BF0E55201019A29EA6A010FE96EDC
:10277000010EEA22EF503F0B0B6E0C6A0BBE0C6889
:102780000BC0DEFF0CC0DDFFD9CFE9FFDACFEAFFD7
:10279000EE50ED6EEF6A01019A51EA6A010FE96E9F
:1027A000010EEA22EF50DF1282C1E6FFDFEC1BF0E0
:1027B000E552DECFE6FFDDCFE6FF1EEC1CF0E55272
:1027C000E552020E01019A2701019B2BBFD787C159
:1027D000E6FFDFEC1BF0E5520A0EE66E4CEC29F04A
:1027E000E55286C1E6FFDFEC1BF0E5520BEC27F06B
:1027F00085EF1BF0020E01019A25EA6A010FE96ECE
:10280000010EEA22EF503F0B0B6E0C6A0BBE0C68F8
:102810000BC0DEFF0CC0DDFFD9CFE9FFDACFEAFF46
:10282000EE50ED6EEF6A01019A29EA6A010FE96E36
:10283000010EEA22EF50DF12040E01019A25EA6A26
:10284000010FE96E010EEA22EF503F0B0B6E0C6A8E
:102850000BBE0C68020E0BC0DBFF030E0CC0DBFFCF
:10286000D950020FE96EDACFEAFFEE50ED6EEF6A53
:10287000030E01019A25EA6A010FE96E010EEA22B0
:10288000EF500B6E0C6AD950020FE96EDACFEAFFF7
:102890000B50EE120C50ED12060E01019A25EA6A59
:1028A000010FE96E010EEA22EF503F0B0B6E0C6A2E
:1028B0000BBE0C68040E0BC0DBFF050E0CC0DBFF6B
:1028C000D950040FE96EDACFEAFFEE50ED6EEF6AF1
:1028D000050E01019A25EA6A010FE96E010EEA224E
:1028E000EF500B6E0C6AD950040FE96EDACFEAFF95
:1028F0000B50EE120C50ED12080E01019A25EA6AF7
:10290000010FE96E010EEA22EF503F0B0B6E0C6ACD
:102910000BBE0C68060E0BC0DBFF070E0CC0DBFF06
:10292000D950060FE96EDACFEAFFEE50ED6EEF6A8E
:10293000070E01019A25EA6A010FE96E010EEA22EB
:10294000EF500B6E0C6AD950060FE96EDACFEAFF32
:102950000B50EE120C50ED12060EDBCFE6FF070E09
:10296000DBCFE6FF040EDBCFE6FF050EDBCFE6FF95
:10297000020EDBCFE6FF030EDBCFE6FFDECFE6FF86
:10298000DDCFE6FFBFEC1EF0F56E080EE15EF55000
:10299000090E01019A2785EF1BF001019A29EA6AC5
:1029A000010FE96E010EEA22EF50DE6EDD6A020EC3
:1029B00001019A25EA6A010FE96E010EEA22EFCFC2
:1029C0000DF00E6A0DBE0E680DC00EF00D6ADE50E1
:1029D0000D240B6EDD500E200C6E0BC0DEFF0CC004
:1029E000DDFF020EDBCFE6FF030EDBCFE6FFDECF1F
:1029F000E6FFDDCFE6FF10EC22F0E552E552E552AE
:102A0000E552040EF3CFDBFF050EF4CFDBFFFF0E24
:102A1000E76E040EDBCF0BF0050EDBCF0CF0E750BA
:102A20000B160C6A0BC041F1D950040FE96EDACFD6
:102A3000EAFF080E0F0B06E0EC52D890ED32EF32B1
:102A4000E806FAE1FF0EE76E040EDBCF0BF0050E91
:102A5000DBCF0CF0E7500B160C6A0BC042F10401FF
:102A60000CBF0BD0400EE66E410EE66E010EE66E18
:102A700066EC26F0E552E552E552050E01019A2773
:102A800085EF1BF001019A2B01019A519A2BEA6AFA
:102A9000010FE96E010EEA22EFCF9DF101019A517B
:102AA0009A2BEA6A010FE96E010EEA22EF50E66EF8
:102AB0000E0EE66EE66A0CEC1FF0E552E552E552AA
:102AC000F60EE66E6E0EE66EE66A0CEC1FF0E55250
:102AD000E552E55201019A519A2BEA6A010FE96E1B
:102AE000010EEA22EF50E66E0E0EE66EE66A0CEC80
:102AF0001FF0E552E552E552F70EE66E6E0EE66EF9
:102B0000E66A0CEC1FF0E552E552E55201019A51DC
:102B10009A2BEA6A010FE96E010EEA22EF50E66E87
:102B20000E0EE66EE66A0CEC1FF0E552E552E55239
:102B3000F80EE66E6E0EE66EE66A0CEC1FF0E552DD
:102B4000E552E552080EE66E72EC1FF0E5527EEC9F
:102B50001CF0F3CFDEFFF4CFDDFF01019B6B010121
:102B60009D5101019B5D1FE2090EE66E72EC1FF0A4
:102B7000E5527EEC1CF0F3CFDEFFF4CFDDFFDECFBD
:102B80000BF0DDCF0CF0FF0E0B16000E0C16010142
:102B90009B51EA6A410FE96E010EEA220BC0EFFF7A
:102BA00001019B2BDCD704010CBFFDD7400EE66E64
:102BB000410EE66E010EE66E66EC26F0E552E55239
:102BC000E5520BEC27F085EF1BF001019A2B010178
:102BD0009A519A2BEA6A010FE96E010EEA22EFCFB1
:102BE0009DF101019A519A2BEA6A010FE96E010EDB
:102BF000EA22EFCF0BF00C6A0BBE0C680BC0DEFFB5
:102C00000CC0DDFF01019A519A2BEA6A010FE96EAF
:102C1000010EEA22EFCF0BF00C6A0BBE0C68020E1D
:102C20000BC0DBFF030E0CC0DBFFA60EE66E9E0E94
:102C3000E66EE66A0CEC1FF0E552E552E552A60E90
:102C4000E66E9C0EE66EE66A0CEC1FF0E552E5526D
:102C5000E552020EDBCFE6FF0E0EE66EE66A0CECE6
:102C60001FF0E552E552E552AA0EE66E6E0EE66ED4
:102C7000E66A0CEC1FF0E552E552E55201019B6B50
:102C800001019D5101019B5D64E2DFCFE6FF0E0E65
:102C9000E66EE66A0CEC1FF0E552E552E552A90E2D
:102CA000E66E6E0EE66EE66A0CEC1FF0E552E5523B
:102CB000E552A60EE66E800EE66EE66A0CEC1FF09C
:102CC000E552E552E552A80EE66E500EE66EE66A53
:102CD0000CEC1FF0E552E552E552F50EE66E6E0E75
:102CE000E66EE66A0CEC1FF0E552E552E552A90EDD
:102CF000E66E6E0EE66EE66A0CEC1FF0E552E552EB
:102D0000E552020EE66E72EC1FF0E5527EEC1CF00E
:102D1000060EF3CFDBFF070EF4CFDBFFFF0EE76EEF
:102D2000060EDBCF0BF0070EDBCF0CF0E7500B16D7
:102D30000C6A01019B51EA6A410FE96E010EEA2219
:102D40000BC0EFFFDF2A010E01E3DB2A01019B2B01
:102D500097D704010CBFFDD7400EE66E410EE66E1C
:102D6000010EE66E66EC26F0E552E552E5520BECFC
:102D700027F085EF1BF001019A2B040EE66E0E0E74
:102D8000E66EE66A0CEC1FF0E552E552E552F60EEF
:102D9000E66E6E0EE66EE66A0CEC1FF0E552E5524A
:102DA000E552E66A0E0EE66EE66A0CEC1FF0E5529E
:102DB000E552E552F70EE66E6E0EE66EE66A0CEC34
:102DC0001FF0E552E552E5523C0EE66E0E0EE66E41
:102DD000E66A0CEC1FF0E552E552E552F80EE66E9D
:102DE0006E0EE66EE66A0CEC1FF0E552E552E55217
:102DF00001019A519A2BEA6A010FE96E010EEA224B
:102E0000EFCF9DF19DC1E6FFE66A0C0EE66E0CEC7D
:102E10001FF0E552E552E552E66AE66AE66A0CEC16
:102E20001FF0E552E552E552CEEC1FF0FA0EE66EC9
:102E30004CEC29F0E55285EF1BF001019A2B050EB1
:102E4000E66E0E0EE66EE66A0CEC1FF0E552E552F9
:102E5000E552F60EE66E6E0EE66EE66A0CEC1FF0BC
:102E6000E552E552E552E66A0E0EE66EE66A0CECB5
:102E70001FF0E552E552E552F70EE66E6E0EE66E75
:102E8000E66A0CEC1FF0E552E552E5523C0EE66EA8
:102E90000E0EE66EE66A0CEC1FF0E552E552E552C6
:102EA000F80EE66E6E0EE66EE66A0CEC1FF0E5526A
:102EB000E552E55201019A29EA6A010FE96E010E15
:102EC000EA22EFCF9DF19DC1E6FF9DC1E6FF0C0E0A
:102ED000E66E0CEC1FF0E552E552E552E66AE66A52
:102EE000E66A0CEC1FF0E552E552E552040EE66E80
:102EF0000E0EE66EE66A0CEC1FF0E552E552E55266
:102F0000F60EE66E6E0EE66EE66A0CEC1FF0E5520B
:102F1000E552E55201019A51EA6A010FE96E010E8C
:102F2000EA22EFCF9DF19DC1E6FF9DC1E6FF0C0EA9
:102F3000E66E0CEC1FF0E552E552E552E66AE66AF1
:102F4000E66A0CEC1FF0E552E552E552CEEC1FF0BC
:102F5000C80EE66E4CEC29F0E552020E01019A27EC
:102F60000BEC27F0D2D3A60EE66E8E0EE66EE66A66
:102F70000CEC1FF0E552E552E552A60EE66E9C0EF3
:102F8000E66EE66A0CEC1FF0E552E552E552020EE1
:102F900001019A25EA6A010FE96E010EEA22EF505B
:102FA000E66E0E0EE66EE66A0CEC1FF0E552E55298
:102FB000E552F60EE66E6E0EE66EE66A0CEC1FF05B
:102FC000E552E552E552030E01019A25EA6A010F26
:102FD000E96E010EEA22EF50E66E0E0EE66EE66A2C
:102FE0000CEC1FF0E552E552E552F70EE66E6E0E60
:102FF000E66EE66A0CEC1FF0E552E552E552040E6F
:1030000001019A25EA6A010FE96E010EEA22EF50EA
:10301000E66E0E0EE66EE66A0CEC1FF0E552E55227
:10302000E552F80EE66E6E0EE66EE66A0CEC1FF0E8
:10303000E552E552E55201019A29EA6A010FE96E6B
:10304000010EEA22EFCF9DF1050E01019A27010141
:103050009B6B01019D0501019B5D22E201019A51DB
:103060009A2BEA6A010FE96E010EEA22EFCF9FF177
:1030700001019A519A2BEA6A010FE96E010EEA22C8
:10308000EFCF9EF19FC1E6FF9EC1E6FF0D0EE66EFB
:103090000CEC1FF0E552E552E55201019B2BD9D70C
:1030A00001019A519A2BEA6A010FE96E010EEA2298
:1030B000EFCF9FF101019A519A2BEA6A010FE96E55
:1030C000010EEA22EFCF9EF19FC1E6FF9EC1E6FF0F
:1030D0000F0EE66E0CEC1FF0E552E552E5529CEC4B
:1030E0001FF00BEC27F011D3A60EE66E8E0EE66EE7
:1030F000E66A0CEC1FF0E552E552E552A60EE66ECC
:103100008C0EE66EE66A0CEC1FF0E552E552E552D5
:10311000A60EE66E840EE66EE66A0CEC1FF0E55233
:10312000E552E552E66AEF0EE66EE66A0CEC1FF039
:10313000E552E552E552E66AF80EE66EE66A0CECF8
:103140001FF0E552E552E552300EE66E0E0EE66EC9
:10315000E66A0CEC1FF0E552E552E552F80EE66E19
:103160006E0EE66EE66A0CEC1FF0E552E552E55293
:10317000E66A0E0EE66EE66A0CEC1FF0E552E552CA
:10318000E552F70EE66E6E0EE66EE66A0CEC1FF088
:10319000E552E552E55201019A2B01019A519A2B11
:1031A000EA6A010FE96E010EEA22EFCF9BF19BC1A3
:1031B000E6FF0E0EE66EE66A0CEC1FF0E552E552F5
:1031C000E552F60EE66E6E0EE66EE66A0CEC1FF049
:1031D000E552E552E55201019A519A2BEA6A010F34
:1031E000E96E010EEA22EFCF9FF101019A519A2B6D
:1031F000EA6A010FE96E010EEA22EFCF9EF19FC14C
:10320000E6FF9EC1E6FF0F0EE66E0CEC1FF0E552E6
:10321000E552E5529CEC1FF001019B2B9BC1E6FFA0
:103220000E0EE66EE66A0CEC1FF0E552E552E55232
:10323000F60EE66E6E0EE66EE66A0CEC1FF0E552D8
:10324000E552E5529FC1E6FF9EC1E6FF0F0EE66E16
:103250000CEC1FF0E552E552E5529CEC1FF0E66ADB
:10326000E66AE66A0CEC1FF0E552E552E552E66AC2
:10327000E66AE66A0CEC1FF0E552E552E552E66AB2
:10328000E66AE66A0CEC1FF0E552E552E5523DD2E3
:10329000A60EE66E9E0EE66EE66A0CEC1FF0E55298
:1032A000E552E552A60EE66E9C0EE66EE66A0CEC62
:1032B0001FF0E552E552E552A60EE66E840EE66E6C
:1032C000E66A0CEC1FF0E552E552E55201019A293D
:1032D000EA6A010FE96E010EEA22EFCF9DF1020EBC
:1032E00001019A25EA6A010FE96E010EEA22EFCF89
:1032F0009FF1030E01019A25EA6A010FE96E010EA2
:10330000EA22EFCF9EF1040E01019A2701019B6B87
:1033100001019D5101019B5D01E385D09FC1E6FF45
:103320000E0EE66EE66A0CEC1FF0E552E552E55231
:10333000A90EE66E6E0EE66EE66A0CEC1FF0E55224
:10334000E552E5529EC1E6FF0E0EE66EE66A0CEC13
:103350001FF0E552E552E552AA0EE66E6E0EE66EDD
:10336000E66A0CEC1FF0E552E552E55201019A5174
:103370009A2BEA6A010FE96E010EEA22EF50E66E1F
:103380000E0EE66EE66A0CEC1FF0E552E552E552D1
:10339000A80EE66E6E0EE66EE66A0CEC1FF0E552C5
:1033A000E552E552550EE66E0E0EE66EE66A0CEC40
:1033B0001FF0E552E552E552A70EE66E6E0EE66E80
:1033C000E66A0CEC1FF0E552E552E552AA0EE66EF5
:1033D0000E0EE66EE66A0CEC1FF0E552E552E55281
:1033E000A70EE66E6E0EE66EE66A0CEC1FF0E55276
:1033F000E552E552A60EE66E820EE66EE66A0CEC2B
:103400001FF0E552E552E552E66AE66AE66A0CEC20
:103410001FF0E552E552E552CEEC1FF001019F2B63
:1034200001019B2B75D7A60EE66E940EE66EE66A3A
:103430000CEC1FF0E552E552E5520BEC27F065D19C
:10344000ACEC27F08B92FBEC1FF001019A2B5DD1C5
:103450004DEC20F001019A2B58D15DEC20F00101D8
:103460009A2B0BEC27F051D101019A2B01019B6B98
:10347000200E01019B5D18E201019A5101019B257B
:10348000EA6A010FE96E010EEA22EF50E66E0101D1
:103490009B51EA6AA00FE96E010EEA22E552E7505D
:1034A000EF6E01019B2BE4D7200E01019A272DD14D
:1034B00001019A2B9AC1E6FFA00EE66E010EE66EA0
:1034C000F3EC20F0E552E552E552230E01019A2774
:1034D0001CD1929689969294899401019A2B0101AC
:1034E0009A51EA6A010FE96E010EEA22EFCF9DF1CF
:1034F00001019B6B01019D5101019B5D10E20101E6
:103500009A2B01019A51EA6A010FE96E010EEA2233
:10351000EF50E66EC5D9E55201019B2BEBD79286A1
:10352000928401019A2BF1D0F29E01019A2B0101A4
:103530009A51EA6A010FE96E010EEA22EFCF9DF17E
:1035400001019B6B01019D5101019B5D0FE249DA75
:10355000E66E01019B51EA6A410FE96E010EEA2213
:10356000E552E750EF6E01019B2BECD7F28E040180
:103570000CBF0BD0400EE66E410EE66E010EE66EFD
:1035800066EC26F0E552E552E55201019A2BBDD0DA
:10359000020E01019A25EA6A010FE96E010EEA2284
:1035A000EF50BE6E01019A29EA6A010FE96E010E21
:1035B000EA22EF50E840E8403F0B0B6E0C6A0BBE6E
:1035C0000C680BC0DEFF0CC0DDFF300EDE16DD6ABE
:1035D000CF0EBD14BD6EBD500D6E0E6ADE500D10C7
:1035E0000B6EDD500E100C6E0B50BD6E030E010104
:1035F0009A25EA6A010FE96E010EEA22EFCFE1F1A6
:10360000040E01019A25EA6A010FE96E010EEA2211
:10361000EF280101E26F040E01019A25EA6A010F09
:10362000E96E010EEA22EF040101E36F050E0101CC
:103630009A25EA6A010FE96E010EEA22EFCF98F1AE
:10364000060E01019A25EA6A010FE96E010EEA22CF
:10365000EFCF99F1070E01019A2757D081A602D02A
:103660000101938181B802D00101938381A402D02A
:10367000010193859D50400B05E0C250020B02E012
:103680000101938B93C141F19D9C94C142F195C17D
:1036900043F196C144F197C145F19D8C0101936BB3
:1036A000C4EC27F004010CBF0BD0400EE66E410EB7
:1036B000E66E010EE66E66EC26F0E552E552E55246
:1036C00001019A2B22D009EC27F0840EA66EFE0E83
:1036D000F66E7F0EF76EF86AF56A0C00550EA76E4F
:1036E000AA0EA76EA6820101916B926B0101910750
:1036F000000E925B01019151921103E00000000065
:10370000F5D7FF0002D001019A2BB8EF10F0D9CF06
:10371000E1FFE552E7CFD9FF12008A888A861200BE
:103720008A968A9812008B80898A8A94A8EC27F05E
:103730009296899692948994780EE66E4CEC29F0D4
:10374000E552899A8A84120EE66EA3EC29F0E552BE
:10375000E7DF010EE66E4CEC29F0E55212008B809B
:10376000898A8A94A8EC27F09296899692948994F3
:10377000780EE66E4CEC29F0E552D2DF120EE66EC2
:10378000A3EC29F0E552899A8A84010EE66E4CEC8E
:1037900029F0E5521200C1DF780EE66EA3EC29F0A5
:1037A000E5528A94898A0C0EE66E4CEC29F0E552BB
:1037B000899AACEC27F0928692848B901200D9CF34
:1037C000E6FFE1CFD9FFE65292948996DF6A050EB3
:1037D000DF5C18E2FE0EDB50010B010BF36EF346CB
:1037E000F346FB0E8914F310896E00008986FE0EE5
:1037F000DBCFF3FFF390F342FE0EF3CFDBFF8996AE
:10380000DF2AE5D7FE0EDB50010B010BF36EF3460A
:10381000F346FB0E8914F310896E00008986FE0EB4
:10382000DBCFF3FFF390F342FE0EF3CFDBFF928486
:103830008996E552E552E7CFD9FF1200D9CFE6FFCE
:10384000E1CFD9FFE6529294FD0EDBCFC0F1FE0E20
:10385000DBCFC1F18986DF6A0E0EDF5C10E289964C
:103860000101C051010B02E0898401D0899400005C
:103870008986D8900101C133C033DF2AEDD78996FC
:10388000000000008986000000008996020EE66EA6
:10389000A3EC29F0E552E552E552E7CFD9FF12003B
:1038A000D9CFE6FFE1CFD9FFE652FE0EDBCFC2F162
:1038B000DF6A080EDF5C17E289960C0EE66E89EC73
:1038C00029F0E5520101C2A102D0898401D0899476
:1038D00089860C0EE66E89EC29F0E5520101C29151
:1038E000C243DF2AE6D789960C0EE66E89EC29F0F2
:1038F000E552E552E552E7CFD9FF1200D9CFE6FFF6
:10390000E1CFD9FFE652DF6A080EDF5C0AE2898662
:103910000000000000008996000000000000DF2A7F
:10392000F3D792840101C36BC46BDF6A080EDF5CBE
:1039300014E28986000000000000D8900101C43321
:10394000C33380A402D00101C38F00008996000018
:10395000000000000000DF2AE9D79294020EE66E14
:10396000A3EC29F0E552C3C1F3FFC4C1F4FF00D0BA
:10397000E552E552E7CFD9FF1200D9CFE6FFE1CFFC
:10398000D9FFE65292840101C56BC66B898600009F
:1039900000008996DF6A0E0EDF5C10E28986000067
:1039A0000000000080A402D00101C68D00008996AD
:1039B000D8900101C633C533DF2AEDD789860000D0
:1039C00000008996020EE66EA3EC29F0E552C5C10F
:1039D000F3FFC6C1F4FF00D0E552E552E7CFD9FFAF
:1039E0001200D9CFE6FFE1CFD9FF020EE126010197
:1039F000C76BC86BDF6A080EDF5C4EE2010EDB6A44
:103A0000010EDB500B6E0C6AD8900C5004E6FA0ED7
:103A10000B5C000E0C5809E280A604D0DE52FB0EAF
:103A2000DD6E02D0010EDB2AEBD7010EDB500B6EF0
:103A30000C6AFA0E0B1801E10C5002E1550E2FD062
:103A4000010EDB6A010EDB500B6E0C6AD8900C5035
:103A500004E6FA0E0B5C000E0C5809E280B604D0A6
:103A6000DE52FB0EDD6E02D0010EDB2AEBD7010E1B
:103A7000DB500B6E0C6AFA0E0B1801E10C5002E1E0
:103A8000AA0E0DD080A402D00101C881D8900101F6
:103A9000C833C733DF2AAFD70101C75100D0D9CF10
:103AA000E1FFE552E7CFD9FF1200D9CFE6FFE1CF22
:103AB000D9FF020EE126DE6ADD6ADECF0BF0DDCF34
:103AC0000CF0FD0EDBCF0DF0FE0EDBCF0EF00D5037
:103AD0000B5C0E500C5809E286C1E6FF70DEE55221
:103AE000DF2A010E01E3DB2AE8D7D9CFE1FFE55257
:103AF000E7CFD9FF1200D9CFE6FFE1CFD9FFE652D9
:103B0000DF6A400EDF5C1BE285C1E6FF58DEE5524E
:103B100034DFF3CF0BF0F4CF0CF0FF0E0B16000EDA
:103B20000C16DF50EA6A410FE96E010EEA220BC063
:103B3000EFFF86C1E6FF43DEE552DF2AE2D704014C
:103B40000CBFFDD7400EE66E410EE66E010EE66E2E
:103B500066EC26F0E552E552E5520BEC27F0E55213
:103B6000E552E7CFD9FF1200D9CFE6FFE1CFD9FF69
:103B7000030EE126DF6A400EDF5C3AE284C1E6FF15
:103B80001EDEE552FADEDE52F3CFDEFFF4CFDDFFBC
:103B9000DD52FF0EE76E010EDBCF0BF0020EDBCF26
:103BA0000CF0E7500B160C6ADF50DF2AEA6A410F6F
:103BB000E96E010EEA220BC0EFFF010EDBCF0BF026
:103BC000020EDBCF0CF00CC00BF00C6AFF0E0B16D4
:103BD000000E0C16DF50EA6A410FE96E010EEA2270
:103BE0000BC0EFFF86C1E6FFEADDE552DF2AC3D74F
:103BF00004010CBFFDD7400EE66E410EE66E010ECD
:103C0000E66E66EC26F0E552E552E5520BEC27F045
:103C1000D9CFE1FFE552E7CFD9FF120081C1E6FF1E
:103C2000CEDDE552000EE66EE66A08DEE552E552AC
:103C300012008AC1E6FFC3DDE5520C0EE66E4CECC5
:103C400029F0E55212008BC1E6FFB9DDE5520C0EFA
:103C5000E66E4CEC29F0E552120087C1E6FFAFDDBD
:103C6000E552030EE66E4CEC29F0E552120088C1D5
:103C7000E6FFA5DDE552030EE66E4CEC29F0E552B9
:103C8000120089C1E6FF9BDDE5520C0EE66E89EC61
:103C900029F0E5521200D9CFE6FFE1CFD9FF83C169
:103CA000E6FF8DDDE552FD0EDBCFE6FFFE0EDBCF3E
:103CB000E6FFC4DDE552E552D0DF050EE66E4CECC2
:103CC00029F0E55286C1E6FF7ADDE552E552E7CFFD
:103CD000D9FF1200D9CFE6FFE1CFD9FF83C1E6FFBC
:103CE0006EDDE552FD0EDBCFE6FFFE0EDBCFE6FF1D
:103CF000A5DDE552E552BBDF050EE66E4CEC29F082
:103D0000E552BFDF86C1E6FF5ADDE552E552E7CF57
:103D1000D9FF1200D9CFE6FFE1CFD9FF82C1E6FF7C
:103D20004EDDE552FD0EDBCFE6FFFE0EDBCFE6FFFC
:103D300085DDE552E55291DF86C1E6FF40DDE552C3
:103D4000E552E7CFD9FF1200D9CFE6FFE1CFD9FF87
:103D500082C1E6FF34DDE552FD0EDBCFE6FFFE0E4D
:103D6000DBCFE6FF6BDDE552E55281DF8ADF86C1FE
:103D7000E6FF25DDE552E552E7CFD9FF1200D9CFA6
:103D8000E6FFE1CFD9FF82C1E6FF19DDE552FD0E66
:103D9000DBCFE6FFFE0EDBCFE6FF50DDE552E5525E
:103DA00086C1E6FF0CDDE55282C1E6FF08DDE55283
:103DB000FB0EDBCFE6FFFC0EDBCFE6FF3FDDE5527F
:103DC000E55286C1E6FFFBDCE55282C1E6FFF7DC87
:103DD000E552F90EDBCFE6FFFA0EDBCFE6FF2EDD74
:103DE000E552E55286C1E6FFEADCE55282C1E6FF14
:103DF000E6DCE552F70EDBCFE6FFF80EDBCFE6FFA1
:103E00001DDDE552E55229DF86C1E6FFD8DCE5522B
:103E1000E552E7CFD9FF1200D9CFE6FFE1CFD9FFB6
:103E2000E652FE0EDB500101C96FCA6BDF6A040E59
:103E3000DF5C15E289960000000000000101C95115
:103E4000010B02E0898401D089940000000089867A
:103E50000000D8900101CA33C933DF2AE8D7FC0E2D
:103E6000DB500101C96FCA6BDF6A080EDF5C15E227
:103E700089960000000000000101C951010B02E019
:103E8000898401D089940000000089860000D890C0
:103E90000101CA33C933DF2AE8D7FD0EDB50010127
:103EA000C96FCA6BDF6A080EDF5C15E289960000F5
:103EB000000000000101C951010B02E0898401D01A
:103EC00089940000000089860000D8900101CA335F
:103ED000C933DF2AE8D789968994E552E552E7CFBE
:103EE000D9FF1200D9CFE6FFE1CFD9FFE652FE0E8F
:103EF000DB500101CB6FCC6BDF6A040EDF5C15E297
:103F000089960000000000000101CB51010B02E086
:103F1000898401D089948986000000000000D8902F
:103F20000101CC33CB33DF2AE8D789968994E55257
:103F3000E552E7CFD9FF1200D9CFE6FFE1CFD9FF95
:103F4000E6528994DF6A040EDF5C0AE2899600007B
:103F5000000000008986000000000000DF2AF3D77F
:103F60000C0EE66E79EC29F0E5528996780EE66E35
:103F7000A3EC29F0E552DF6A100EDF5C0AE28986C5
:103F80000000000000008996000000000000DF2A09
:103F9000F3D7E552E552E7CFD9FF1200D9CFE6FFBC
:103FA000E1CFD9FFE6528994DF6A040EDF5C0AE2B2
:103FB00089960000000000008986000000000000D3
:103FC000DF2AF3D789963C0EE66E4CEC29F0E552D9
:103FD000DF6A100EDF5C0AE2898600000000000044
:103FE0008996000000000000DF2AF3D7E552E55271
:103FF000E7CFD9FF1200D9CFE6FFE1CFD9FF020EFC
:10400000E1268B808A94898A90EC1BF0929689969F
:1040100092948994010EE66E4CEC29F0E552DE6A2A
:10402000DD6ADECF0BF0DDCF0CF0D8900C5004E64B
:10403000040E0B5C000E0C5813E28A84899A0C0E55
:10404000E66EA3EC29F0E5528A94898A010EE66EA9
:104050004CEC29F0E552DF2A010E01E3DB2AE1D71F
:10406000B20EE66E1DDCE552C20EE66E19DCE552BC
:10407000120EE66E15DCE5520A0EE66E11DCE55214
:104080008A84899A1E0EE66E4CEC29F0E552D9CF4F
:10409000E1FFE552E7CFD9FF12008DEC1BF08A94C7
:1040A000898A0C0EE66E4CEC29F0E552899AACEC4C
:1040B00027F0928692848B901200050EE66E0E0E0B
:1040C000E66EE66AA9DEE552E552E552F60EE66EC8
:1040D0006E0EE66EE66AA0DEE552E552E552E66A4D
:1040E0000E0EE66EE66A98DEE552E552E552F70EF0
:1040F000E66E6E0EE66EE66A8FDEE552E552E5523A
:104100003C0EE66E0E0EE66EE66A86DEE552E5527F
:10411000E552F80EE66E6E0EE66EE66A7DDEE5525C
:10412000E552E552010EE66E010EE66E0C0EE66EED
:1041300073DEE552E552E552040EE66E0E0EE66EB3
:10414000E66A6ADEE552E552E552F60EE66E6E0E5E
:10415000E66EE66A61DEE552E552E552800EE66EF5
:10416000800EE66E0C0EE66E57DEE552E552E55225
:10417000E66AE66AE66A50DEE552E552E55201D8A3
:104180001200D9CFE6FFE1CFD9FFE6528994DF6A6A
:10419000040EDF5C0AE289960000000000008986B8
:1041A000000000000000DF2AF3D78996F00EE66ECB
:1041B0004CEC29F0E552F00EE66E4CEC29F0E5529D
:1041C000DF6A100EDF5C0AE2898600000000000052
:1041D0008996000000000000DF2AF3D7E552E5527F
:1041E000E7CFD9FF1200D9CFE6FFE1CFD9FF030E09
:1041F000E126A60EE66E840EE66EE66A0DDEE55258
:10420000E552E552FC0EDBCFF3FFDB2AF350EA6AFE
:10421000010FE96E010EEA22EF50E66E0E0EE66E19
:10422000E66AFADDE552E552E552F60EE66E6E0EEE
:10423000E66EE66AF1DDE552E552E552FC0EDBCFB3
:10424000F3FFDB2AF350EA6A010FE96E010EEA225E
:10425000EF50E66E0E0EE66EE66ADEDDE552E552E2
:10426000E552F70EE66E6E0EE66EE66AD5DDE552B5
:10427000E552E552FC0EDBCFF3FFDB2AF350EA6A8E
:10428000010FE96E010EEA22EF50E66E0E0EE66EA9
:10429000E66AC2DDE552E552E552F80EE66E6E0EB4
:1042A000E66EE66AB9DDE552E552E552DF6A200EB8
:1042B000DF5C2DE2DF50E76EFD0EDBCFE9FFFE0E87
:1042C000DBCFEAFFE750E926000EEA22020EEFCF2D
:1042D000DBFFDF28E76EFD0EDBCFE9FFFE0EDBCF55
:1042E000EAFFE750E926000EEA22010EEFCFDBFFDE
:1042F000020EDBCFE6FF010EDBCFE6FF0D0EE66E12
:104300008BDDE552E552E552020EDF26D0D7DF6A9B
:104310000F0EDF5C28E2FC0EDBCFF3FFDB2AF3504D
:10432000EA6A010FE96E010EEA22020EEFCFDBFF0F
:10433000FC0EDBCFF3FFDB2AF350EA6A010FE96ED4
:10434000010EEA22010EEFCFDBFF020EDBCFE6FF0C
:10435000010EDBCFE6FF0D0EE66E5EDDE552E552A7
:10436000E552DF2AD5D7FC0EDBCFF3FFDB2AF35073
:10437000EA6A010FE96E010EEA22020EEFCFDBFFBF
:10438000FC0EDBCFF3FFDB2AF350EA6A010FE96E84
:10439000010EEA22010EEFCFDBFF020EDBCFE6FFBC
:1043A000010EDBCFE6FF0F0EE66E36DDE552E5527D
:1043B000E55206D8D9CFE1FFE552E7CFD9FF120089
:1043C000D9CFE6FFE1CFD9FFE6528994DF6A040E28
:1043D000DF5C0AE289960000000000008986000088
:1043E00000000000DF2AF3D70C0EE66E4CEC29F03B
:1043F000E5528996000000000000DF6A100EDF5CC5
:104400000AE2898600000000000089960000000092
:104410000000DF2AF3D7E552E552E7CFD9FF1200BB
:10442000D9CFE6FFE1CFD9FF080EE126040EDB6A03
:10443000050EDB6A060EDB6A070EDB6AFD0EDBCFBC
:1044400006F0FE0EDBCF07F0020E06C0DBFF030E08
:1044500007C0DBFFDE6ADD6ADECF0BF0DDCF0CF0DC
:10446000020EDBCF0DF0030EDBCF0EF00D500B5C18
:104470000E500C5824E284C1E6FFDFEC1BF0E5523D
:10448000BDEC1CF0F3CF0BF0F4CF0CF00D6A0E6A0C
:10449000D950040FE96EDACFEAFF0B50EE260C502C
:1044A000EE220D50EE220E50EE2286C1E6FFDFEC2A
:1044B0001BF0E552DF2A010E01E3DB2ACDD7700E97
:1044C000E66EDFEC1BF0E552030EE66E4CEC29F0D5
:1044D000E552D950040FE96EDACFEAFFEE52EE5200
:1044E000EE6AEE6A040EDBCF0BF0050EDBCF0CF0AC
:1044F0000BC0F3FF0CC0F4FF00D0D9CFE1FFE552B1
:10450000E7CFD9FF1200D58E9298F28A1200D59E7D
:10451000F29A9288899812008150200B01E0010ED6
:104520000101005D0AE08150200B01E0010E010154
:10453000006F81BA02D0010E02D0000E00D012002E
:10454000D9CFE6FFE1CFD9FF020EE126D9CFE1FFB7
:08455000E552E7CFD9FF12008C
:0845580004011051600BE84260
:10456000E842E842E842E842000901E058D004018C
:104570001151070A53E00B0A51E0070A42E0010A11
:104580002CE00B0A28E0020A26E0030A22E0080ACF
:1045900012E0010A0EE00F0A0AE0030A01E03ED031
:1045A0000101010ED86F0101040EE46F38D038D834
:1045B00036D093D834D00101010ED86F0101E60E38
:1045C000D96F010EDA6F0101E5930101010EDD6F74
:1045D00026D0ABD824D0FAD822D00101010ED86F52
:1045E000040114510101D96FDA6BE70E0101D927DB
:1045F000010E0101DA230101E5930101010EDD6FD6
:104600000ED00101010ED86F04011451EA6AE70FC0
:10461000E96E010EEA2212C4EFFF01D000D01200B1
:10462000800E0401105D58E104011351030A34E0C7
:10463000010A10E0030A01E04DD00101010ED86F1C
:104640000101AC0ED96F500EDA6F120E0101DD6F51
:10465000DE6B40D00101010ED86F04011251F66EDD
:10466000F76AD890F636F736EA0EF626510EF7229C
:104670000900F5CFD9F10A00F5CFDAF1020E0101F8
:10468000F76AD925F66EDA51F7220900F5CFDDF188
:104690000A00F5CFDEF11ED00101010ED86F040132
:1046A0001251F66EF76AD890F636F736EE0EF62609
:1046B000510EF7220900F5CFD9F10A00F5CFDAF152
:1046C000D9C1F6FFDAC1F7FF0800F5500101DD6F2F
:1046D000DE6B00D00101E58312000101010ED86FED
:1046E0000F0EE66E710EE66E0F0EE66E93EC27F07F
:1046F000E552E552E552010EE66EE70EE66E010E5A
:10470000E66E93EC27F0E552E552E55212C4E6F16D
:104710000401125104E10101050EE46F05D001010D
:10472000060EE46F4EEC26F012000401186B040133
:10473000196B040110511F0B020A15E0030A0FE068
:10474000010A01E035D00101010ED86F02D0040149
:1047500018810101E5A102D00401188329D00101CB
:10476000010ED86F25D00101010ED86F040114513C
:104770000F0B080DF3500C6A000F0B6E040E0C2289
:1047800004011451800B01E0010E040DF3500101EE
:104790000B24DB6F000E0C20DC6FDBC1E9FFDCC1FA
:1047A000EAFFEF50040B03E00401010E186F00D084
:1047B0000101D8050AE10101180ED96F040EDA6F64
:1047C0000101E5930101020EDD6F120004011205E3
:1047D00011E1040110511F0B00090CE10101010E50
:1047E000D86F030E0401115D03E10101E58102D0E0
:1047F0000101E591040112513EE1040110511F0B2A
:10480000020839E1040114510F0B000934E00101E1
:10481000010ED86F040114510F0B080DF3500C6AF0
:10482000000F0B6E040E0C2204011451800B01E0EA
:10483000010E040DF35001010B24DB6F000E0C2060
:10484000DC6F030E0401115D07E1840EDBC1E9FF9B
:10485000DCC1EAFFEF6E0FD0040114AF06D0DBC15C
:10486000E9FFDCC1EAFFEF6A06D0880EDBC1E9FF91
:08487000DCC1EAFFEF6E12004B
:084878006C500BE1040100513A
:104880003C0BE842E8420D0802E108D801D03ED8CE
:1048900004D0040E6C5C01E14BD81200D9CFE6FFC6
:1048A000E1CFD9FFE6520101D76B0101D86B0101BD
:1048B000DD6BDE6BACEC22F0DF6ADF500B6E0C6A56
:1048C000010E0B5C000E0C581BE20101D85101E0F7
:1048D00017D0F76ADF34FE0BF736F66EF80EF626C1
:1048E000510EF7220900F5CF0BF00800F5CF0CF0C0
:1048F00004D00CC0FAFF0B50F96EFBDFDF2ADDD7C6
:10490000E8D8E552E552E7CFD9FF1200020E0101C7
:10491000D75D0CE1A0D8040100BD04D00401C80E8D
:10492000006F03D00401880E006F01D021D912005E
:10493000040E0101E45D0CE112C46EFF6E5000082C
:1049400004E20101050EE46F03D00101030EE46FE0
:104950000101D7050CE10DD8040104BD04D0040108
:10496000C80E046F03D00401880E046F01D000D973
:104970001200D9CFE6FFE1CFD9FF020EE1260101F7
:10498000080EDD5D000EDE5905E2DDC1DEFFDEC191
:10499000DDFF03D0080EDE6EDD6A0401049304011E
:1049A0000491010EDB5004010413DFCF05F4000E67
:1049B000DB500101DD5F010EDB500101DE5B010117
:1049C000180EDB6F040EDC6F0101E5A320D0D9CFF8
:1049D000E9FFDACFEAFFEE50ED1018E0D9C1F6FF9B
:1049E000DAC1F7FF0800F550DBC1E9FFDCC1EAFFDF
:1049F000EF6E0101DB2B000EDC230101D92B000E31
:104A0000DA23DF06010E01E2DB06E1D71ED0D9CFA3
:104A1000E9FFDACFEAFFEE50ED1017E0D9C1E9FF68
:104A2000DAC1EAFFEF50DBC1E9FFDCC1EAFFEF6E5C
:104A30000101DB2B000EDC230101D92B000EDA2350
:104A4000DF06010E01E2DB06E2D7D9CFE1FFE55236
:104A5000E7CFD9FF1200D9CFE6FFE1CFD9FF020E91
:104A6000E126030E04010015E76E010EE7CFDBFF20
:104A700001C4DFFFDE500101DD27DD500101DE232F
:104A80000101180ED96F040EDA6FD9CFE9FFDACF22
:104A9000EAFFEE50ED1017E0D9C1E9FFDAC1EAFFF5
:104AA000EF50DBC1E9FFDCC1EAFFEF6E0101DB2B58
:104AB000000EDC230101D92B000EDA23DF06010EE4
:104AC00001E2DB06E2D7D9CFE1FFE552E7CFD9FF1C
:104AD00012006D980101D8510FE10401080E016F19
:104AE0000401100E026F040E036F0401840E006FA8
:104AF0000401840E046F3BD0040110AF25D00101E6
:104B0000DD510401165D0101DE510401175904E273
:104B100016C4DDF117C4DEF12CDF0101010ED76FE1
:104B20000401080E016F0401100E026F040E036FE2
:104B30000401800E006F0401180E066F040E076F4B
:104B40000401C80E046F13D00101020ED76F0401D7
:104B5000056B0401C80E046F0401080E016F040107
:104B6000180E026F040E036F0401C80E006F1200CE
:104B70000101D76B0401080E016F0401100E026FD2
:104B8000040E036F0401880E006F0401046B120011
:104B9000040110511F0B010801E07DD004011451E4
:104BA00001E079D0060E0401115D2FE104011351DB
:104BB000230A28E0010A13E0030A01E024D00101DE
:104BC000020ED86F0101E60505E10101D00ED96F93
:104BD000500EDA6F090E0101DD6FDE6B14D001019A
:104BE000020ED86F0101E60505E10101CD0ED96F76
:104BF000510EDA6F0101E60504E11D0E0101DD6FC2
:104C0000DE6B01D000D00101E58304011051600B7F
:104C1000E842E842E842E842E842010801E03BD0CD
:104C2000040111510B0A31E0080A21E0090A19E0D8
:104C3000080A09E00B0A05E0080A01E02CD02CD88C
:104C40002AD02BD828D00101020ED86F0101E80E1E
:104C5000D96F010EDA6F0101E5930101010EDD6FDD
:104C60001AD00101020ED86F13C4E8F114D001016B
:104C7000020ED86F0101E90ED96F010EDA6F010142
:104C8000E5930101010EDD6F06D00101020ED86F20
:104C900012C4E9F100D01200120012000101EA6B07
:104CA0001E0E716E0401400E096F0401200E0A6F82
:104CB000040E0B6F0401880E086F0401600E0E6F66
:104CC000040E0F6F0401400E0C6F1200D9CFE6FFE7
:104CD000E1CFD9FFE652FC0EDB50400805E2400E62
:104CE000F36EFC0EF3CFDBFFDF6AFC0EDB50DF5C04
:104CF00019E2DF50E76EFD0EDBCFE9FFFE0EDBCFE2
:104D0000EAFFE750E926000EEA22EF50E66EDF5098
:104D1000EA6A600FE96E040EEA22E552E750EF6E90
:104D2000DF2AE3D7FC0EDBCF0DF4400E04010C1795
:104D300004010C7D880E04010C13E552E552E7CF07
:104D4000D9FF1200D9CFE6FFE1CFD9FF0101EA6B0D
:104D5000040108BF39D0FC0EDBCF0BF00401095170
:104D6000D8800B5403E2FC0E09C4DBFF0101EA6B9F
:104D7000FC0EDB500101EA5D1CE20101EA51EA6A26
:104D8000200FE96E040EEA22EF50E66E0101EA51AF
:104D9000E76EFD0EDBCFE9FFFE0EDBCFEAFFE7504B
:104DA000E926000EEA22E552E750EF6E0101EA2BF8
:104DB000DFD70401400E096F400E040108170401FB
:104DC000087D880E040108130101EA5100D0E55264
:064DD000E7CFD9FF12003D
:0A4DD6006DA610D802D06DB614D8F7
:104DE0000101E40509E16DBA07D0686A696A698062
:104DF00069880101020EE46F12006D6A696A6D86AE
:104E00000101010EE46F12006D6A696A0101E46B31
:104E10001200FADF12000101E45101E13AD06850BA
:104E2000040B04E06950040B01E038D86DB231D0B6
:104E30006850010B04E06950010B01E052D8685042
:104E4000100B04E06950100B01E024D86850400BAF
:104E500004E06950400B01E039D86850200B04E0B1
:104E60006950200B01E034D86850020B04E069500F
:104E7000020B01E034D8030E0101E45D01E209D028
:104E80006850080B06E06950080B03E03CEC24F086
:104E900068961200698468986D8212006D92699418
:104EA000689412000101E5A110D0F8DF6D840101C2
:104EB000080EEB6F070EEC6F0101EB07000EEC5BC9
:104EC0000101EB51EC11F8E16D941200689C1200A5
:104ED00070A003D0B8EC25F07090689A1200689228
:104EE00012006A6A686A9F0E6B6E7B0E696E6E6A4C
:104EF0000F0EE66E710EE66E0F0EE66E14D8E552DA
:104F0000E552E552160E706E68A602D06896FCD780
:104F10006D98B8EC25F00101E5910101E66B010106
:104F2000030EE46F1200D9CFE6FFE1CFD9FFFD0EEB
:104F3000DBCFE9FFFE0EDBCFEAFFFC0EDB5004E027
:104F4000EE6AFC0EDB06F9D7E552E7CFD9FF120077
:104F50008A940C0EBA6E1200BA6A1200050EC26E66
:104F60003E0EC06E0101DF6B0101E06B9E9C9D8CCB
:104F7000C2821200C26A9D9C1200CF6ACE6AB10E34
:104F8000CD6E9E909D8012009D909E90CD6A8B90DC
:104F900012008A888A94F1DF0101938712008A94B3
:104FA0008A88EBDF010193891200D8CFE4FFE0CFBC
:104FB000E4FFE46EDACFE4FFE2CFDAFFE9CFE4FF0B
:104FC000EACFE4FFE652D9CFE6FFE1CFD9FFE652C0
:104FD0009EAC4BD09E9C050EC25C19E18150100B1B
:104FE0000DE101019851C45C09E2080E0101DF5D89
:104FF00002E1CFDF02D00101DF2B02D00101DF6B24
:10500000C4CF95F1C3CF94F1010EC26E2DD0C2046E
:105010002BE10C0EBA6EBA500CE00101E251D880BF
:10502000C45401E2BB6A0101E351C45C02E2E1C184
:10503000BBFF8150040B10E08050200B0DE10101FB
:105040009951C45C09E2080E0101E05D02E1A7DFAD
:1050500002D00101E02B02D00101E06BC4CF97F137
:10506000C3CF96F1050EC26EC282F2A406D0F294AE
:105070008978F60ED76EBD0ED66E9E50010B05E0F8
:105080009D50010B02E09E908B70E552E552E7CFF8
:10509000D9FFE552E5CFEAFFE5CFE9FFE5CFDAFF3B
:0C50A000E550E5CFE0FFE5CFD8FF1000A1
:0450AC0012010002EB
:1050B00000000008D80433000100010203020902C5
:1050C00029000101028032090400000203000000EF
:1050D000092101000001221D000705810340000194
:1050E000070501034000010902200001020480328B
:1050F0000904000002FF00000007058103400001D1
:10510000070501034000010403090434034D00694D
:1051100000630072006F0063006800690070002087
:105120000054006500630068006E006F006C006F43
:105130000067007900200049006E0063002E0048DF
:10514000035000490043006B0069007400200032E6
:105150000020004D006900630072006F0063006F63
:10516000006E00740072006F006C006C00650072CD
:10517000002000500072006F006700720061006D37
:10518000006D0065007200160350004900430031B5
:105190000038004600320035003500300030035042
:1051A00000490043006B00690074002000320020B9
:1051B0000043006F006E00660067007500720061BA
:1051C00000740069006F006E00200032000600FFCE
:1051D0000901A10119012940150026FF0075089554
:1051E000408102190129409102C0BE50E750075189
:0A51F0000B513F5187519D51904B28
:0651FA002A0EF66E200EE5
:10520000F76E000EF86E01010900F550D26F09002B
:10521000F550D36F03E1D26701D03DD00900F550BE
:10522000CD6F0900F550CE6F0900F550CF6F090022
:105230000900F550E96E0900F550EA6E0900090011
:105240000900F550D06F0900F550D16F0900090031
:10525000F6CFD4F1F7CFD5F1F8CFD6F1CDC1F6FF27
:10526000CEC1F7FFCFC1F8FF0101D05302E1D15306
:1052700007E00900F550EE6ED007F8E2D107F9D744
:10528000D4C1F6FFD5C1F7FFD6C1F8FF0101D2079F
:08529000000ED35BBFD7120032
:08529800FF0EE350106EEF0E53
:1052A00001D0F30EE76EE72E53EF29F00C0E0F6ED0
:1052B000E76AE72E59EF29F00F2E58EF29F0102E4C
:0652C00051EF29F012007D
:0A52C60005D80FD8A1EC10F0FCD7BA
:1052D0001200140E6F6E0101E46B0101E56B010118
:1052E000E66B16EC10F01200EBEC26F00BEC27F05E
:0252F0001200AA
:0E52F200FF0EE350106E480E01D04C0EE76E1A
:10530000E72EFED7E76AE72EFED7102EF7D700006C
:02531000120089
:0E531200FF0EE350106E1B0E00D001D0200ED7
:0E532000E76EE72EFED7102EFAD700D012004F
:02532E0013EE7C
:1053300000F023EE00F0F86A0A9CFDEC28F063EC24
:0653400029F0FDD7120068
:0A534600FF0EE350E84E12000000D5
:0C53500000D000D000D0E82EFAD71200E8
:00000001FF
