:020000040000FA
:100000001F280000000000000B280339820701347C
:10001000023404340834A00003088301A1000A0854
:10002000A2008A010408A3000B1970202308840091
:1000300022088A0021088300A00E200E0900073044
:100040009F00103085008601831603132030850041
:100050000F3086006400033081008B168312031377
:100060008101A50101218B17A801A601A60A822002
:10007000FF39031D3728DF20FF39031D3728060805
:100080000F392E02031D37281230A5002F08C03962
:100090002602031937282F08C039A6002F083F3938
:1000A00003193728FF3E0F39A400A4193728241953
:1000B00037280520A7008B13AF1A65282708FF39BA
:1000C000031965282708A8066C282708FF3AA80501
:1000D00027082F1EA8046C2800307B208B17372898
:1000E0000B11A508031D8028FF30A8051030280437
:1000F00085008601080028048500270E8600080078
:10010000A5030800AC142C102E3084000330AD0081
:100110002C15A901851E8A28AA01851E9628AA0ADF
:1001200000003A302A02031C8D280134AA012C1841
:10013000A128851AA92861302A0203180234AA0AC4
:100140009928851EA92861302A0203180234AA0AB8
:10015000A1280130AC0613302A02031C03343A30C4
:100160002A02031CB628AC1CBA2804340230AC06A0
:10017000AC1896282C1DCA282C1CC228291EA90A96
:10018000962809342C110C302902031C0A340A3039
:10019000A9009628A9030319D72801302906031DB1
:1001A000D4282C18962807342C0CAB0D96282C1824
:1001B00008342B088000840AAD0BC72800342E3089
:1001C00084000330AD00FF30AB000008AB06030134
:1001D000AB1B7A3A2B1B3D3AAB1A863A2B1A433AA1
:1001E000AB19B93A2B19C43AAB18623A2B18313A09
:1001F000AB00840AAD0BE5282B08031D0029003451
:040200000C340800B2
:02400E00423F2F
:00000001FF
