:020000040000FA
:1000000001288B018316003081008312850107309F
:100010009900831610309F0004308500123095003F
:10002000831281309F000330A0000516B220B22059
:100030000512B220B220A00B1528CF288512A801E6
:1000400003100514851485100830A0002D20A00B86
:100050002628A80AA80B38281E28A80D0310051466
:10006000FF30A500A50B3228051D28140510080037
:100070002808A00085128516A00B3A28A62028087B
:10008000AD002D083F392704AD000530A5005820EC
:10009000A50B472828084030A7072808A000B22051
:1000A000B2200516B220B2200512A00B4F281E2840
:1000B0008530AB001430A2008720A20B5C287C2086
:1000C0002C3084000230A100FF30A90000089220EB
:1000D00000087020840AA10B6628290870200800F7
:1000E000AA000830A200AA0D031878287C207928DD
:1000F0008720A20B7328872085162B08A400A40B49
:100100007F2885122B08A400A40B842808008512E0
:100110002B08A400A40B8A2885162B08A400A40B86
:100120008F280800A9060301A91B7A3A291B3D3A2A
:10013000A91A863A291A433AA919B93A2919C43A87
:10014000A918623A2918313AA90008000830A0001D
:100150000301A301A30A28182307A80CA00BAA28AF
:10016000A8000800FF30A600A500A50BB528A60B27
:10017000B42808001430A2008720A20BBC287C20E1
:100180000800AA000830A200AA0D0318C9287C2084
:10019000CA288720A20BC42887207C200800413071
:1001A000AD00582058205820582058204030AD0726
:1001B000D128CF288530AB000530A000BA20003010
:1001C000C1204130C1208D30C120A00BDE28053078
:1001D000A000BA200030C1208130C120CA30C12027
:1001E000A00BE9280530A000BA200030C120C130A2
:1001F000C120F730C120A00BF4280530A000BA20A0
:100200000030C1200130C120B030C120A00BFF2838
:10021000DA288530AB000530A000872087208720B2
:100220008720872087208720872087208720872096
:100230008720872087208720872087208720872086
:1002400087207C207C207C207C207C207C207C20C3
:100250007C207C2087207C207C2087207C207C20A8
:100260007C207C207C20872087207C2087207C208D
:100270007C207C20872087207C20872087207C2072
:10028000A00B0D290530A00087208720872087201C
:100290008720872087208720872087208720872026
:1002A0008720872087208720872087208720872016
:1002B0007C207C207C207C207C207C207C207C205E
:1002C0007C2087207C2087207C207C207C207C2038
:1002D0007C207C20872087207C20872087207C2012
:1002E0007C2087207C2087207C2087207C20A00BFE
:1002F00044290530A0008720872087208720872079
:1003000087208720872087208720872087208720B5
:1003100087208720872087208720872087207C20B0
:100320007C207C207C207C207C207C207C207C20ED
:1003300087207C20872087207C207C207C207C20BC
:100340007C20872087207C2087208720872087208B
:100350007C2087208720872087207C20A00B7B297A
:100360000530A000872087208720872087208720CE
:100370008720872087208720872087208720872045
:100380008720872087208720872087207C207C204B
:100390007C207C207C207C207C207C207C20872072
:1003A0007C207C207C207C207C207C207C207C206D
:1003B000872087207C2087207C20872087207C2026
:1003C0007C207C207C2087207C20A00BB22909295E
:0207FE002434A1
:02400E00C43FAD
:00000001FF
