:020000040000FA
:1000000001288B018316003081008312850107309F
:100010009900831610309F0004308500123095003F
:10002000831281309F000330A1000516AD20AD2062
:100030000512AD20AD20A10B1528A0018512AC0141
:1000400003100514851485100830A1002D20A10B84
:100050002628AC0AAC0B38281D28AC0D031005145B
:10006000FF30A900A90B3228051D2C14051008002B
:100070002C08A10085128516A10B3A28A1202C0876
:10008000AE002E083F392B04AE000330A9005020EB
:10009000A90B47282C084030AB072C08A1001D28CD
:1000A000A0017530A7001430A3008120A30B5528B0
:1000B00075202D3084000230A200FF30A50000081A
:1000C0008D2000086920840AA20B5F28250869207A
:1000D0000800A6000830A300A60D0318712875209B
:1000E00072288120A30B6C288120A00A851627087E
:1000F000A800A80B792885122708A800A80B7E283D
:100100000800A00A85122708A800A80B85288516D4
:100110002708A800A80B8A280800A5060301A51B2C
:100120007A3A251B3D3AA51A863A251A433AA5196B
:10013000B93A2519C43AA518623A2518313AA500EA
:1001400008000830A1000301A401A40A2C18240708
:10015000AC0CA10BA528AC000800FF30AA00A90038
:10016000A90BB028AA0BAF2808007530A700812082
:100170008120812081208120812081208120812077
:100180008120812081208120812081208120812067
:100190008120812081207520752075207520752093
:1001A000752075207520752081207520752081208F
:1001B000752075207520752075208120812075207F
:1001C0008120752075207520812081207520812057
:0601D00081207520B52816
:02400E00C43FAD
:00000001FF
