:020000040000FA
:1000000001288B018316FF239000003081008312AA
:10001000850107309900831610309F000430850059
:1000200012309500831281309F000330A000051626
:10003000B320B3200512B320B320A00B17288512DC
:10004000AB0103100514851485100830A0002E2084
:10005000A00B2728AB0AAB0B39281F28AB0D0310C8
:100060000514FF30A800A80B3328051D2B1405101C
:1000700008002B08A00085128516A00B3B28A7209E
:100080002B08AD002D083F392A04AD000330A8002D
:100090005920A80B48282B084030AA072B08A0009D
:1000A000B320B3200516B320B3200512A00B5028AF
:1000B0001F287530A6001430A2008820A20B5D28EE
:1000C0007D202C3084000230A100FF30A400000805
:1000D000932000087120840AA10B6728240871204E
:1000E0000800A5000830A200A50D031879287D207E
:1000F0007A288820A20B7428882085162608A70055
:10010000A70B802885122608A700A70B85280800C2
:1001100085122608A700A70B8B2885162608A7009E
:10012000A70B90280800A4060301A41B7A3A241BFD
:100130003D3AA41A863A241A433AA419B93A241922
:10014000C43AA418623A2418313AA40008000830CE
:10015000A0000301A301A30A2B182307AB0CA00BDB
:10016000AB28AB000800FF30A900A800A80BB628F8
:10017000A90BB52808007530A600882088208820A3
:10018000882088208820882088208820882088202F
:10019000882088208820882088208820882088201F
:1001A00088207D207D207D207D207D207D207D205C
:1001B0007D207D2088207D207D2088207D207D2041
:1001C0007D207D207D20882088207D2088207D2026
:1001D0007D207D20882088207D20882088207D200B
:1001E000B320B320B320B320B320B320B320B32077
:0801F000B320B320B320BB28AB
:0207FE002434A1
:02400E00C43FAD
:00000001FF
