:020000040000FA
:1000000023280000000000000F280739820707346A
:1000100005340B3400340034063400340034A000BE
:1000200003088301A1000A08A2008A010408A300B2
:100030000B1972202308840022088A0021088300FB
:10004000A00E200E090007309F00103085008601A9
:1000500083160313203085000F30860064000330C0
:1000600081008B16831203138101A401FF208B17DB
:10007000A701A501A50A8020FF39031D3B28DD202B
:10008000FF39031D3B2806080F392D02031D3B28AD
:100090001230A4002E08C039250203193B282E086F
:1000A000C039A5002E083F3903193B28FF3E0F3900
:1000B000AA00AA193B280520A6008B13AE1A6728B0
:1000C00026080039031967282608A7066E2826087F
:1000D000FF3AA70526082E1EA7046E2800307920B7
:1000E0008B173B280B11A408031D7E280030A705A1
:1000F000103027048500270886000800A4030800A4
:10010000AB142B102D3084000330AC002B15A8014C
:10011000851E8828A901851E9428A90A00003A3066
:100120002902031C8B280134A9012B189F28851A4A
:10013000A7286130290203180234A90A9728851ECE
:10014000A7286130290203180234A90A9F28013028
:10015000AB0613302902031C03343A302902031C76
:10016000B428AB1CB82804340230AB06AB18942872
:100170002B1DC8282B1CC028281EA80A9428093427
:100180002B110C302802031C0A340A30A8009428D2
:10019000A8030319D52801302806031DD2282B18DF
:1001A000942807342B0CAA0D94282B1808342A08FD
:1001B0008000840AAC0BC52800342D308400033045
:1001C000AC00FF30AA000008AA060301AA1B7A3A75
:1001D0002A1B3D3AAA1A863A2A1A433AAA19B93A68
:1001E0002A19C43AAA18623A2A18313AAA00840A8B
:1001F000AC0BE3282A08031DFE2800340C34080049
:040200000034003492
:02400E00423F2F
:00000001FF
