:02000000912B42
:100006005408D8025508031C550FD9025608031C7C
:10001600560FDA025708031C570FDB02D30D0730C1
:10002600DC00530DD80DD90DDA0DDB0D5408531C29
:100036002A28D8025508031C550FD9025608031C56
:10004600560FDA025708031C570FDB023728D8076A
:1000560055080318550FD90756080318560FDA071F
:1000660057080318570FDB07D30DDC0B1428520D66
:10007600D80DD90DDA0DDB0D5408531C5028D802C3
:100086005508031C550FD9025608031C560FDA02F1
:100096005708031C570FDB025D28D80755080318BD
:1000A600550FD90756080318560FDA0757080318CD
:1000B600570FDB07D20D0730DC00520DD80DD90DD6
:1000C600DA0DDB0D5408521C7628D8025508031C9D
:1000D600550FD9025608031C560FDA025708031C9F
:1000E600570FDB028328D80755080318550FD90781
:1000F60056080318560FDA0757080318570FDB0779
:10010600D20DDC0B6028510DD80DD90DDA0DDB0DA3
:100116005408521C9C28D8025508031C550FD902B6
:100126005608031C560FDA025708031C570FDB024A
:10013600A928D80755080318550FD90756080318D4
:10014600560FDA0757080318570FDB07D10D07308C
:10015600DC00510DD80DD90DDA0DDB0D5408511CFC
:10016600C228D8025508031C550FD9025608031C8D
:10017600560FDA025708031C570FDB02CF28D807A1
:1001860055080318550FD90756080318560FDA07EE
:1001960057080318570FDB07D10DDC0BAC28500DA1
:1001A600D80DD90DDA0DDB0D5408511CE828D802FC
:1001B6005508031C550FD9025608031C560FDA02C0
:1001C6005708031C570FDB02F528D80755080318F4
:1001D600550FD90756080318560FDA07570803189C
:1001E600570FDB07D00D0730DC00500DD80DD90DA9
:1001F600DA0DDB0D5408501C0E29D8025508031CD5
:10020600550FD9025608031C560FDA025708031C6D
:10021600570FDB021B29D80755080318550FD907B6
:1002260056080318560FDA0757080318570FDB0747
:10023600D00DDC0BF82850182E295408D80755087D
:100246000318550FD90756080318560FDA0757082B
:080256000318570FDB07080035
:10025E00DB09DA09D909D809D80A0319D90A031909
:08026E00DA0A0319DB0A08009B
:0C02760007308312DD00DD0B3E2908007C
:0C028200831227088A002608820008006A
:10028E00A0308312D0000F30D100D201D30108006C
:10029E008312BF03BF033F08003C03185B29BF0353
:1002AE0000000000000052290000000000000000C5
:0402BE000000080034
:1002C20083125408003A031D7B295508003A031D86
:1002D2007B295608003A031D7B295708003A031D63
:1002E2007B29FF30D000FF30D100FF30D2007F30B9
:1002F200D300142A83120313DC01D71BDC0ADD01AD
:10030200DB01DA01D901D801530852045104500427
:1003120003190F2A53085706A000A01BDD09D71F97
:100322009D29D409D509D609D709D40A0319D50AB2
:100332000319D60A0319D70AD31FAA29D009D1094A
:10034200D209D309D00A0319D10A0319D20A03190F
:10035200D30A53085704A000A01BCB290320DC1B9F
:10036200E829DD1F0F2AD009D109D209D309D00A01
:100372000319D10A0319D20A0319D30AD809D909D0
:10038200DA09DB09D80A0319D90A0319DA0A0319A7
:10039200DB0A0F2AD71FE229D31BDC295308DB0013
:1003A2005208DA005108D9005008D800D301D2010E
:1003B200D101D001B229D301D201D101D001D00A99
:1003C2000034D309D209D109D009DC17AF29D80AE0
:1003D2000319D90A0319DA0A0319DB0A5408580265
:1003E200031DB22955085902031DB22956085A02A3
:1003F200031DB22957085B02031DB229DB01DA0192
:10040200D901D801D00A0319D10A0319D20A031952
:10041200D30AD31FB229A0012016FF34A0015C1C0D
:08042200132A2F21003E0800FF
:10042A00831203132230DC00D801D901DA01DB017F
:10043A00DC0303194B2A0310DB0CDA0CD90CD80C99
:10044A00D30CD20CD10CD00C031C1D2ADC030319CB
:10045A003D2A5408D80755080318550FD9075608D6
:10046A000318560FDA0757080318570FDB07212A14
:10047A005408D80755080318550FD9075608031802
:0E048A00560FDA0757080318570FDB07080054
:1004980041218A110A128000840AA60A0319A70AB0
:0804A800D003031D4C2A0800DB
:1004B000C33083129F05F0309F05F03083169F04F0
:1004C00083129F172D08D000D00D5010D00D501062
:1004D00050089F041F143B219F149F1C712A000089
:1004E0006D2A1F101E08D100D00183161E08D004EB
:0604F0000030D1040800F9
:1004F60083122D08A9002E08D0000130D200500822
:100506000319892AD20D5210FF3E832A5208AA00E7
:100516005209A8002F08D1000130D0005108031954
:10052600982AD00D5010FF3E922A5008AB00D009F1
:100536005008AC0080302D07840052088004500813
:100546008005A20134080319A92AA20984132208E6
:10055600003A0319B12A2C088005B32A2B08800417
:100566004721E830D4000330D500D601D701152243
:100576005008B5005108B6005208B7005308B80035
:100586003008D0003108D1003208D2003308D30039
:10059600D00DD10DD20DD30D5010D00DD10DD20DE1
:1005A600D30D50100A30D400D501D601D70115223B
:1005B6005008B9005108BA005208BB005308BC00E5
:1005C6005008D4005108D5005208D6005308D70069
:1005D6003508D0003608D1003708D2003808D300D5
:1005E60061215008BD005108BE005108D400D50154
:1005F600540855040319022B0230D000572B3D082E
:10060600A1003908D4003A08D5003B08D6003C08BA
:10061600D7003508D0003608D1003708D200380890
:10062600D30061215808D0005908D1005A08D200D9
:100636005B08D3005008B5005108B6005208B70051
:100646005308B8003908D5003A08D6003B08D70049
:100656003C08D800D80CD70CD60CD50CD813581B90
:10066600D81780305806D400803053065402031D34
:10067600462B52085702031D462B51085602031DEE
:10068600462B500855020318492BA10A2108D10010
:10069600D10CD1135108A500073051020318562B6F
:0A06A6000130D000572BD0010800EE
:1006B00001308312AE002208AD062908840022080A
:1006C000003A0319662B2B088004682B2C08800540
:1006D0002108BF004F21AD092E080319842B2E08D5
:1006E0002D05D000031D772B2B088004792B2C08B7
:1006F0008005AE0D2E1002302102BF004F210000F8
:100700000000000000006C2B2208003A03198B2B1C
:100710002C0880058D2B2B0880042108BF004F2159
:020720000800CF
:10072200073083129900133083169F000130850031
:10073200813083129F000530AD000130AE000230DF
:10074200AF006030B0000930B100B201B301B401B2
:100752007B22AD0158225008A3005108A400510881
:10076200D200D3015208AD0058238230DC00DD30C4
:10077200DD00DD0BBA2BDC0BBA2B000000002308D6
:08078200AD005823AA2BC42B83
:02400E009431EB
:00000001FF
