:020000040000FA
:1000000001288B018316FF239000003081008312AA
:10001000850107309900831610309F00003085005D
:1000200016309500831281309F00AC01A7010510A6
:10003000A120A80103108514A1200515A1200511F8
:10004000A1200830A0002A20A00B2328A80AA80B72
:1000500033281728A80D03108514A120851D281406
:100060008510A12008002808A00005100514A00B89
:1000700035284720AD004030A7072D083F39270419
:10008000AD000530A5005220A50B432817280830E5
:10009000A0000301A301A30A28182307A80CA00BA2
:1000A0004B280800A0307530AB001430A20082202D
:1000B000A20B572877202C3084000230A100FF309B
:1000C000A90000088D2000086B20840AA10B61287C
:1000D00029086B200800AA000830A200AA0D031806
:1000E0007328772074288220A20B6E2882200514A2
:1000F0002B08A400A40B7A2805102B08A400A40B3D
:100100007F28080005102B08A400A40B85280514DF
:100110002B08A400A40B8A280800A9060301A91B28
:100120007A3A291B3D3AA91A863A291A433AA9195B
:10013000B93A2919C43AA918623A2918313AA900DA
:1001400008000F30A600A500A50BA428A60BA32825
:020150000800A5
:0207FE002434A1
:02400E00C43FAD
:00000001FF
